:1000000002000375814012014DE582600302006F1A
:10001000780079007A007B007C007D00EC4D601C4C
:1000200088828983E493A3A882A9838A828B83F040
:10003000A3AA82AB831CBCFFE31D80E07582007520
:1000400083007C007D00EC4D600AE4F0A31CBCFF43
:10005000F51D80F27582007583007C007D00EC4DFB
:10006000600AE4F0A31CBCFFF51D80F212014712E8
:10007000048080FE1B5B324A0045464D3820726585
:100080006D6F74650A46696C653A2025730A436F83
:100090006D70696C65643A2025732C2025730A0AFB
:1000A00000433A5C55736572735C6E617468615CA1
:1000B000446F776E6C6F6164735C5542435C596545
:1000C00061725F325C5465726D5F325C454C4543D2
:1000D0003239315C50726F6A65637420325C5072E1
:1000E0006F6A6563742D322D547261636B696E673C
:1000F0002D526F626F745C646F635C72656D6F74B8
:10010000652E63004D617220323820323032330068
:1001100031353A32323A32300079203D2025640AB6
:100120000078203D2025640A00426561636F6E20DF
:10013000546F67676C65643A202564003C4E4F201D
:10014000464C4F41543E00E4F50CF50D2275A700D6
:100150007597DE7597AD43FF8075EF0275A7107533
:10016000C12075A70075A90075A900E5A930E7FBB6
:1001700075A90375A903E5A930E7FB43A41075E150
:100180000175E20075E340759810858E8E758DE6D9
:10019000858D8B53890F438920D28ED29975820029
:1001A0002275A700C2EF75B28075BC2075B91E75A7
:1001B000E80075DF3F75B300D2EF22AA82438E407C
:1001C0007592B87593FF8592948593957591047B8C
:1001D00000C3EB9A500BE59130E7FB53917F0B8006
:1001E000F075910022AA82AB83BA0004BB00012201
:1001F0007582F9C002C0031201BB7582F91201BBFE
:100200007582F91201BB7582FA1201BBD003D002CC
:100210001ABAFF011B80D2AA828537F005F074015B
:10022000800225E0D5F0FBFB75A720BA0002800A0A
:10023000BA0102800FBA021E8014EBF4FA52F1EBFD
:1002400042D48012EBF4FA52F2EB42D58008EBF480
:10025000FA52F3EB42CC75A700228582BBC2EDD2E5
:10026000EC30EDFD85BD8285BE832212025A120854
:100270004BAA82AB83ACF0FDC002C003C004C00532
:10028000906C8B75F05374401208B7AA82AB83ACA4
:10029000F0FDE58124FCF581E4C0E074FCC0E0746D
:1002A0007FC0E07446C0E08A828B838CF0ED120937
:1002B000D9AA82AB83ACF0FDE58124FCF5818A826A
:1002C0008B838CF0ED22D2A57582281201BBC2A5CA
:1002D00022AA828AE0A2E792A1A2E692A2A2E592D5
:1002E000A3A2E492A4C0021202C67582281201BB26
:1002F000D0028AE0A2E392A1A2E292A2A2E192A39A
:10030000A2E092A40202C6AA82D2A68A821202D1D6
:100310009000020201E5AA82C2A68A821202D1904E
:1003200000050201E5C2A59000141201E5758233B3
:100330001203167582331203167582321203167574
:10034000822812031675820C12031675820112039D
:10035000169000140201E5AA82AB83ACF07402B5DA
:100360000E047DC080027D808D82C002C003C00467
:100370001203169000051201E5D004D003D0027DCF
:10038000007E00ED2AFFEE3BF88C018F8288838986
:10039000F012082FFF60208F82C002C003C004C08B
:1003A00005C006120307D006D005D004D003D00242
:1003B0000DBD00CF0E80CC3000248D028E03C3EA29
:1003C0009410EB648094805015758220C002C003A5
:1003D000120307D003D0020ABA00E30B80E02285A3
:1003E000821185831285F013E4F514F515E50F24C9
:1003F000FFFFE51034FFF879007A00C3E99FEA6453
:100400008088F063F08095F05059C002C007C000AA
:10041000C0011209ADAB82D001D000D007D002BB21
:100420000A028003BB0D1DE5142511FCE5153512EC
:10043000FDAE138C828D838EF0E41209C085148288
:1004400085158322E92511FCEA3512FDAE138C8255
:100450008D838EF0EB1209C009B900010A89148A54
:10046000158098E5142511FAE5153512FBAC138AB1
:10047000828B838CF0E41209C0850F828510832261
:100480007A017B009001F4C002C0031201E574748C
:10049000C0E07400C0E07480C0E012098C158115C2
:1004A0008115817410C0E07401C0E07480C0E074F4
:1004B00004C0E07401C0E07480C0E074A1C0E074C6
:1004C00000C0E07480C0E07479C0E07400C0E074E3
:1004D00080C0E012098CE58124F4F581753701753F
:1004E000820112021775370275820112021712017A
:1004F000A1D003D002758207C002C00312026B852F
:10050000821685831785F018F51975820812026B1B
:1005100085821A85831B85F01CF51D7582091202E0
:100520006BE4C0E0C0E074C0C0E0743FC0E085167A
:10053000828517838518F0E519120887AE82E58158
:1005400024FCF581D003D002EE60337E027F00C030
:1005500002C003C006C0077402C0E0E4C0E0741922
:10056000C0E07401C0E07480C0E012098CE5812411
:10057000FBF581D007D006D003D00202060DC002E1
:10058000C0037466C0E0C0E07426C0E07440C0E000
:100590008516828517838518F0E519120857AC82F5
:1005A000E58124FCF581D003D002EC60307E007F31
:1005B00000C002C003C006C007E4C0E0C0E0741978
:1005C000C0E07401C0E07480C0E012098CE58124B1
:1005D000FBF581D007D006D003D00280307E017FAA
:1005E00000C002C003C006C0077401C0E0E4C0E060
:1005F0007419C0E07401C0E07480C0E012098CE599
:100600008124FBF581D007D006D003D002C002C000
:1006100003C006C007E4C0E0C0E074C0C0E0743F9F
:10062000C0E0851A82851B83851CF0E51D120887B2
:10063000AC82E58124FCF581D007D006D003D0023E
:10064000EC60397C007D00C002C003C004C005C05E
:1006500006C007E4C0E0C0E07421C0E07401C0E05F
:100660007480C0E012098CE58124FBF581D007D0AD
:1006700006D005D004D003D002020725C002C00373
:10068000C006C0077466C0E0C0E07426C0E07440D5
:10069000C0E0851A82851B83851CF0E51D12085772
:1006A000A882E58124FCF581D007D006D003D002D2
:1006B000E8603A7C027D00C002C003C004C005C0EF
:1006C00006C0077402C0E0E4C0E07421C0E0740119
:1006D000C0E07480C0E012098CE58124FBF581D074
:1006E00007D006D005D004D003D00280387C017D2D
:1006F00000C002C003C004C005C006C0077401C02A
:10070000E0E4C0E07421C0E07401C0E07480C0E0A7
:1007100012098CE58124FBF581D007D006D005D0E5
:1007200004D003D00230933E2093FDEA4BB4010085
:10073000E433FA7B00C002C003C004C005C006C099
:1007400007C002C0037429C0E07401C0E07480C017
:10075000E012098CE58124FBF581D007D006D00595
:10076000D004D003D002EA4B6009750AC8E4F50B47
:1007700002081E8E378F3890000AC002C003C004E2
:10078000C00512095AE5828583F0D005D004D00354
:10079000D0022CFCED35F0FDBC0005BD00028060F0
:1007A000BC0105BD00028050BC0205BD00028040B6
:1007B000BC0A05BD00028050BC0C05BD00028028AB
:1007C000BC1405BD00028048BC1505BD00028008B0
:1007D000BC1645BD00428008750AB4E4F50B803EA6
:1007E000750AA0E4F50B8036750A8CE4F50B802EB3
:1007F000750A78E4F50B8026750A64E4F50B801E13
:10080000750A50E4F50B8016750A3CE4F50B800E72
:10081000750A28E4F50B8006750A14E4F50B9001BF
:10082000F4C002C0031201E5D003D0020204F52097
:10083000F71430F6148883A88220F507E6A883759C
:10084000830022E280F7E49322E022E4AC83AB82CF
:10085000FAF9748E020B01FFA8811818120B29D225
:10086000D133E6400730E70B7582012220E7067599
:10087000820022C2D1120B0BE97003F5822230D123
:1008800001B3E433F58222FFA8811818120B29D294
:10089000D133E6400730E70B7582002220E706756A
:1008A000820122C2D1120B0BE97003F5822220D102
:1008B00001B3E433F58222120BD6BC0003020B75A0
:1008C000EF60FA30D502B2D1E583B4FF03020B8B9F
:1008D000E582B4FF03020B8B258340072482400B83
:1008E000020B752483145003020B8BF582EA8DF002
:1008F000A4A8F0EA8EF0A428F8E435F0F9EB8DF026
:10090000A428E935F0F9E433CA8FF0A429F9EA35CF
:10091000F0FAEBF88EF0A429F9EA35F0FAE433FBAB
:10092000EC8DF0A429F9EA35F0FAE43BFBE88FF00E
:10093000A42AFAEB35F0FBE433CCFD8EF0A42AFABE
:10094000EB35F0FBE43CFCED8FF0A42BFBEC35F039
:10095000FC20E703120BA3020B54E5828537F0A4B9
:10096000C582C0F08538F0A4D0F025F0C583853766
:10097000F0A42583F58322021224858230858331F9
:1009800085F032851E33900977020C8DC008858171
:1009900008E50824FBF533E50824FBF886300886D3
:1009A00031088632900977120C8DD00822109802F7
:1009B00080FBAA998A82C002121224D0028A822263
:1009C00020F71030F6118883A88220F507F6A88357
:1009D00075830022F280F7F022120BD630D502B2D6
:1009E000D1BF0009BC0003020B98020B8BBC0003B3
:1009F000020B75E583B4FF0BE582B4FF03020B988D
:100A0000020B75E582B4FF03020B8BC3958350077D
:100A1000247F400B020B752480145003020B8BC003
:100A2000E0E4CCCBCAF98D378E388F39EF54F0C45F
:100A3000F53A758306853AF0EB84F582E9C4F9EA64
:100A4000C4FAEBC4FBEC540FC47803D6FC18EBD605
:100A5000FB18EAD6FA8582F0EDA4A8F0FD8582F0B5
:100A6000EEA428FEE435F0F88582F0EFA428FFE438
:100A700035F0F8E99DF9EA9EFAEB9FFBEC98FCADA6
:100A800037AE38AF3930E7101582E92DF9EA3EFA72
:100A9000EB3FFBE43CFC80EDC082D58398C3E93397
:100AA000F9EA33FAEB33FBEC33FCC3E99DEA9EEB46
:100AB0009FEC9400B3E413F9D002D0E0C44AFAD01A
:100AC00003D0E0C44BFBD004D0E0F5F0540FC44C8D
:100AD000FCD082158230F40FD3EC13FCEB13FBEA4D
:100AE00013FAE913F90582E930E70A74012AFAE4F6
:100AF0003BFBE43CFC020B6CFCABF0AA83A98274C8
:100B00009EC2D1F582120BA3020B547901AA82E690
:100B10008F82B5821318E6B5F00E18E6B583091872
:100B2000E68A82B58202790022B4800FE5F0700A6D
:100B3000E5837006E58270027F00EFB6801518B677
:100B4000001018B6000B18B6000608080876002238
:100B500008080822B98003EA13B34010EA2401FA16
:100B6000E43BFBE43CFC50047C800582BC000EBBF3
:100B7000000BBA0008E4F5F0F583F58222A2D1E576
:100B800082138CF092F78B838A8222E4F583F582BC
:100B900075F080F4A2D11322E4F583F58275F0C0DC
:100BA000747F227804EC7011E58224F8500AF582F3
:100BB000E4C9CACBFCD8EF22EC7820058220E713E9
:100BC000D5820122C3E933F9EA33FAEB33FBEC3384
:100BD000FCD8EA158222AA82AB83A2F73392D160B5
:100BE00002D2F7F582ACF0E58124F9F8E6FD08E6DB
:100BF000FE0886F008E6A2F73392D56002D2F7F538
:100C000083AFF022AA827415C0E0740CC0E0C02249
:100C1000C0238A82220529E4B52902052A22AA8254
:100C200074302AFA24C6500A74072AFA30010343A2
:100C300002208A82020C04E582FAC4540FF582C0B5
:100C400002120C1ED002740F5AF582020C1EAA2446
:100C5000AB25AC26AD27AE28752F20EE2EFEED235A
:100C60005401FF4206EA2AFAEB33FBEC33FCED3386
:100C7000FDC3EE952B4008EEC3952BFE430201D534
:100C80002FD98A248B258C268D278E282285822297
:100C9000858323E4F529F52AAA30AB31AC328A8268
:100CA0008B838CF012082FFD74012AF530E43BF59C
:100CB000318C32EDFA700302121DBA250280030254
:100CC0001215C205C206C207C208C209C20AC20B77
:100CD000C20CC202C203C204752B00752C00752D14
:100CE000FFAB30AC31AD328B828C838DF012082F8C
:100CF000FAA3AB82AC838B308C318D32BA25078A54
:100D000082120C0480928A06BE3000402E8A06EEC3
:100D100024C6402774FFB52D13E52C75F00AA4FEF8
:100D2000EA24D02EF52C70BFD20680BBE52D75F0DD
:100D30000AA4FEEA24D02EF52D80ACBA2E0A74FF48
:100D4000B52DA4752D00809F8A06BE6100400E8AD5
:100D500006EE248540075302DFD2018002C201BAA9
:100D600020028075BA2303020DE8BA2A03020DEDB2
:100D7000BA2B02805FBA2D028055BA4202805FBA58
:100D80004303020E32BA4403020F6DBA4503020F49
:100D900087BA4603020F83BA4703020F8BBA49038F
:100DA000020F6DBA4C02803BBA4E03020F8FBA4F4E
:100DB00003020F74BA5003020F06BA5303020E5611
:100DC000BA5503020F79BA5803020F7E020FB9D247
:100DD00005020CE7D207020CE7D208020CE7D20AA0
:100DE000020CE7D20B020CE7D20C020CE774FFB541
:100DF0002D20300A0BE53314F88833862C020CE7DB
:100E0000E53324FEF888338606088607188E2C0200
:100E10000CE7300A0BE53314F88833862D020CE713
:100E2000E53324FEF888338606088607188E2D02DF
:100E30000CE7300A0AE53314F888338602800FE5A0
:100E40003324FEF888338603088604188B028A82CE
:100E5000120C04020FBEE53324FDF8883386030824
:100E6000860408860518188B248C258D268B828C89
:100E7000838DF0121239AB82AC838B2E74FFB52DAB
:100E800003852E2D20051DC3E52E952C5016E52C2F
:100E9000C3952EF52CAB2C152CEB60087582201217
:100EA0000C0480F18524828525838526F012082F85
:100EB000FBFA6029AB2D152DC3E464808BF063F041
:100EC0008095F050188A82120C04AB24AC25AD2614
:100ED0000BBB00010C8B248C258D2680C7200503BD
:100EE000020FBEC3E52E952C4003020FBEE52CC3B6
:100EF000952EF52CAB2C152CEB7003020FBE7582D2
:100F000020120C0480EEE53324FDF88833860308B4
:100F1000860408860518188B248C258D26E526FB6B
:100F200030E7047A438013EB546060047A50800AFF
:100F3000EB30E6047A4980027A588A82C002120CA9
:100F40000475823A120C04758230120C0475827892
:100F5000120C04D002BA4902800BBA5002800685F6
:100F60002582120C37852482120C378051D20975E4
:100F70002B0A804A752B088045752B0A8040752BFB
:100F800010803BD2028037D2038033D204802FE519
:100F90003324FDF88833860308860408860518186C
:100FA0008B248C258D268B828C838DF0E52912096C
:100FB000C0A3E52A1209C080058A82120C0420020F
:100FC0000620030330045AE53324FCF888338603F3
:100FD0000886040886050886061818188B248C25B0
:100FE0008D268E2775243C75250175268085243431
:100FF00085253585263674012534FEE43535FFAB6D
:10100000368E248F258B268534828535838536F070
:1010100012082FFBFA7003020C988A82120C0480CB
:10102000CCE52B7003020C987B40300A2BE533147F
:10103000F88833E6FC3395E0FDFEFF8C248D258E89
:10104000268F2720095EAC247D007E007F008C2443
:101050008D258E268F27804C300B1FE53324FCF81E
:101060008833860408860508860608860718181837
:101070008C248D258E268F27802AE53324FEF88840
:1010800033860408860518ED3395E0FEFF8C248D29
:10109000258E268F2720090CAC24AD257E007F00ED
:1010A0008E268F27300C43E52445254526452760AD
:1010B000397408B52B0C758230C003120C04D003B0
:1010C00080287410B52B23758230C003120C04D015
:1010D0000330010C758278C003120C04D003800A1F
:1010E000758258C003120C04D003300925AC24AD1E
:1010F00025AE26E527FF30E717C3E49CFCE49DFD01
:10110000E49EFEE49FFF8C248D258E268F2780028F
:10111000C209752E00D20D8B00752800C000120C7C
:101120004ED000200D0DE528C4FCE6FD4CF61888D5
:10113000038002A628052EB20DE524452545264547
:101140002770D68803E52C7003752C0120061A2021
:101150000517E52E04FCC3952C500E758220C003A4
:10116000120C04D003152C80E930090E75822DC0B5
:1011700003120C04D003152C8024E52E60203007C8
:101180000E75822BC003120C04D003152C800F3077
:10119000080C758220C003120C04D003152C200506
:1011A0001EAC2C152CC3E52E9C50273006047C3039
:1011B00080027C208C82C003120C04D00380E2C326
:1011C000E52E952C5009E52CC3952EF52C80037542
:1011D0002C008B00AB2E152EEB6022B20D200D0AD9
:1011E00008E6C4540FFB8B2880078603740F5BF559
:1011F00028852882C000120C1ED00080D72005034D
:10120000020C98AB2C152CEB7003020C9875822005
:10121000120C0480EE8A82120C04020C988529823A
:10122000852A8322AA82BA0A0810990280FB75993E
:101230000D10990280FB8A9922AA82AB83ACF07DC3
:10124000007E008A828B838CF012082FFFA3AA8273
:10125000AB83EF60070DBD00EA0E80E78D828E83C1
:10126000220000000000000000000000000000005C
:00000001FF
