:1000000002002EE4F525F5262200000203E600009A
:1000200000000000000000000000000203EE7581E7
:100030006D12023EE582600302009A780079007A30
:10004000007B007C007D00EC4D601C88828983E48D
:1000500093A3A882A9838A828B83F0A3AA82AB830D
:100060001CBCFFE31D80E07582007583007C007D71
:1000700000EC4D600AE4F0A31CBCFFF51D80F27596
:1000800082007583007C007D00EC4D600AE4F0A3E3
:100090001CBCFFF51D80F21200031205E980FE1B57
:1000A0005B324A0045464D382072656D6F74650AB3
:1000B00046696C653A2025730A436F6D70696C65FB
:1000C000643A2025732C2025730A0A00433A5C55B4
:1000D000736572735C6E617468615C446F776E6C9B
:1000E0006F6164735C5542435C596561725F325C59
:1000F0005465726D5F325C454C45433239315C501A
:10010000726F6A65637420325C50726F6A656374E3
:100110002D322D547261636B696E672D526F626F61
:10012000745C646F635C72656D6F74652E6300410F
:10013000707220203320323032330031343A333081
:100140003A33300079203D2025640A0078203D2094
:1001500025640A00426561636F6E20546F67676CA7
:1001600065643A20256400426561636F6E204D6FBF
:100170006465202020202000436F6E74726F6C2015
:1001800044697361626C656400436F6E74726F6C76
:100190006C6572204D6F64652000446972656374FC
:1001A000696F6E3A204E20202020004469726563FA
:1001B00074696F6E3A204E452020200044697265B4
:1001C0006374696F6E3A20452020202000446972D4
:1001D000656374696F6E3A2053452020200044699E
:1001E00072656374696F6E3A2053202020200044AA
:1001F0006972656374696F6E3A205357202020003E
:10020000446972656374696F6E3A2057202020201C
:1002100000446972656374696F6E3A204E572020FE
:100220002000446972656374696F6E3A204E6F6E88
:100230006520003C4E4F20464C4F41543E0075A770
:10024000007597DE7597AD43FF8075EF0275A710B7
:1002500075C12075A70075A90075A900E5A930E74B
:10026000FB75A90375A903E5A930E7FB43A4107545
:10027000E10175E20075E340759810858E8E758DED
:10028000E6858D8B53890F438920D28ED299758252
:10029000002275A700C2EF75B28075BC2075B91E2B
:1002A00075E80075DF3F75B300D2EF22AA82438E56
:1002B000407592B87593FF859294859395759104D6
:1002C0007B00C3EB9A500BE59130E7FB53917F0B1A
:1002D00080F075910022AA82AB83BA0004BB0001B2
:1002E000227582F9C002C0031202AC7582F91202B3
:1002F000AC7582F91202AC7582FA1202ACD003D04E
:10030000021ABAFF011B80D2AA828511F005F0748F
:1003100001800225E0D5F0FBFB75A720BA00028022
:100320000ABA0102800FBA021E8014EBF4FA52F1ED
:10033000EB42D48012EBF4FA52F2EB42D58008EB98
:10034000F4FA52F3EB42CC75A700228582BBC2EDD2
:10035000D2EC30EDFD85BD8285BE832212034B12A7
:100360000BD0AA82AB83ACF0FDC002C003C004C0B6
:1003700005906C8B75F0537440120C3CAA82AB83D1
:10038000ACF0FDE58124FCF581E4C0E074FCC0E044
:10039000747FC0E07446C0E08A828B838CF0ED12DB
:1003A0000DF3AA82AB83ACF0FDE58124FCF5818AD4
:1003B000828B838CF0ED22438E025389F0438902B5
:1003C000758AD2758CD2D2A9D2AFC28C2275C800E0
:1003D000438E1075CA6075CB7375CEFF75CFFFD293
:1003E000AFD2ADC2CA2275A700B2A0B2A132C0E09E
:1003F000C0D075D00075A700C2CF0525E4B5250291
:10040000052674C8B52506E4B526028002800DE4F1
:10041000F525F526D296C2A0D2A1D28CE523B5252A
:1004200009E524B52604C296C28CD0D0D0E032D2E1
:10043000A67582281202ACC2A622AA828AE0A2E78E
:1004400092A2A2E692A3A2E592A4A2E492A5C0027F
:1004500012042F7582281202ACD0028AE0A2E39225
:10046000A2A2E292A3A2E192A4A2E092A502042F8A
:10047000AA82D2B08A8212043A9000020202D6AA5C
:1004800082C2B08A8212043A9000050202D6C2A645
:100490009000141202D675823312047F75823312D3
:1004A000047F75823212047F75822812047F758260
:1004B0000C12047F75820112047F9000140202D690
:1004C000AA82AB83ACF07402B527047DC080027DA4
:1004D000808D82C002C003C00412047F9000051208
:1004E00002D6D004D003D0027D007E00ED2AFFEEBC
:1004F0003BF88C018F82888389F0120BB4FF602057
:100500008F82C002C003C004C005C006120470D0B0
:1005100006D005D004D003D0020DBD00CF0E80CC94
:100520003000248D028E03C3EA9410EB6480948023
:100530005015758220C002C003120470D003D0028F
:100540000ABA00E30B80E02285822A85832B85F09E
:100550002CE4F52DF52EE52824FFFFE52934FFF8DE
:1005600079007A00C3E99FEA648088F063F080959F
:10057000F05059C002C007C000C001120D32AB825A
:10058000D001D000D007D002BB0A028003BB0D1DF2
:10059000E52D252AFCE52E352BFDAE2C8C828D8396
:1005A0008EF0E4120D45852D82852E8322E9252AC1
:1005B000FCEA352BFDAE2C8C828D838EF0EB120D78
:1005C0004509B900010A892D8A2E8098E52D252A32
:1005D000FAE52E352BFBAC2C8A828B838CF0E4124F
:1005E0000D45852882852983227A017B00C2A0D20D
:1005F000A19001F4C002C0031202D61203B7120385
:10060000CD749FC0E07400C0E07480C0E0120D1192
:10061000158115811581743BC0E07401C0E07480C0
:10062000C0E0742FC0E07401C0E07480C0E074CCFE
:10063000C0E07400C0E07480C0E074A4C0E0740046
:10064000C0E07480C0E0120D11E58124F4F5811240
:10065000048ED2CA75110175820112030875110248
:10066000758201120308120292D003D0027582072C
:10067000C002C00312035C85822F85833085F03170
:10068000F53275820812035C85823385833485F0E8
:1006900035F5367433C0E0C0E074F3C0E0743FC099
:1006A000E0852F828530838531F0E532120C0CAE67
:1006B00082E58124FCF581D003D002EE60337E0216
:1006C0007F00C002C003C006C0077402C0E0E4C0DF
:1006D000E07444C0E07401C0E07480C0E0120D1109
:1006E000E58124FBF581D007D006D003D0020207B4
:1006F00082C002C00374CDC0E074CCC0E0742CC0D2
:10070000E07440C0E0852F828530838531F0E5328A
:10071000120BDCAC82E58124FCF581D003D002EC25
:1007200060307E007F00C002C003C006C007E4C086
:10073000E0C0E07444C0E07401C0E07480C0E01226
:100740000D11E58124FBF581D007D006D003D0023E
:1007500080307E017F00C002C003C006C007740164
:10076000C0E0E4C0E07444C0E07401C0E07480C044
:10077000E0120D11E58124FBF581D007D006D003EE
:10078000D002C002C003C006C0077433C0E0C0E09E
:1007900074F3C0E0743FC0E08533828534838535CF
:1007A000F0E536120C0CAC82E58124FCF581D00713
:1007B000D006D003D002EC60397C007D00C002C0BE
:1007C00003C004C005C006C007E4C0E0C0E0744C2C
:1007D000C0E07401C0E07480C0E0120D11E5812416
:1007E000FBF581D007D006D005D004D003D002029B
:1007F000089DC002C003C006C00774CDC0E074CC21
:10080000C0E0742CC0E07440C0E08533828534833E
:100810008535F0E536120BDCA882E58124FCF581F4
:10082000D007D006D003D002E8603A7C027D00C039
:1008300002C003C004C005C006C0077402C0E0E4E3
:10084000C0E0744CC0E07401C0E07480C0E0120DE0
:1008500011E58124FBF581D007D006D005D004D066
:1008600003D00280387C017D00C002C003C004C0F8
:1008700005C006C0077401C0E0E4C0E0744CC0E0ED
:100880007401C0E07480C0E0120D11E58124FBF515
:1008900081D007D006D005D004D003D00230933EDB
:1008A0002093FDEA4BB40100E433FA7B00C002C0A0
:1008B00003C004C005C006C007C002C0037454C012
:1008C000E07401C0E07480C0E0120D11E58124FBEA
:1008D000F581D007D006D005D004D003D002EA4B72
:1008E00060557523C8E4F524C294C002C003746740
:1008F000C0E07401C0E07480C0E07437C0E07400F0
:10090000C0E07440C0E0120DADE58124FAF58174B9
:1009100078C0E07401C0E07480C0E07448C0E07446
:1009200000C0E07440C0E0120DADE58124FAF5810D
:10093000D003D002020B8DD294C002C003C004C009
:1009400005C006C0077489C0E07401C0E07480C0AF
:10095000E07437C0E07400C0E07440C0E0120DAD38
:10096000E58124FAF581D007D0068E118F12900010
:100970000A120CDFE5828583F0D005D004D003D0C5
:10098000022CFCED35F0FDBC0006BD0003020ACAD6
:10099000BC0106BD0003020A98BC0206BD000302AA
:1009A0000A66BC0A06BD0003020AFCBC0C06BD00B8
:1009B00003020A34BC1406BD0003020B2DBC15054E
:1009C000BD0002800BBC1605BD00028035020B5E27
:1009D0007523B4E4F524C002C003749AC0E0740126
:1009E000C0E07480C0E07448C0E07400C0E07440AF
:1009F000C0E0120DADE58124FAF581D003D00202EA
:100A00000B8D7523A0E4F524C002C00374ABC0E0D5
:100A10007401C0E07480C0E07448C0E07400C0E0BD
:100A20007440C0E0120DADE58124FAF581D003D009
:100A300002020B8D75238CE4F524C002C00374BC44
:100A4000C0E07401C0E07480C0E07448C0E074008D
:100A5000C0E07440C0E0120DADE58124FAF581D00C
:100A600003D002020B8D752378E4F524C002C00385
:100A700074CDC0E07401C0E07480C0E07448C0E090
:100A80007400C0E07440C0E0120DADE58124FAF5B9
:100A900081D003D002020B8D752364E4F524C002DB
:100AA000C00374DEC0E07401C0E07480C0E074482C
:100AB000C0E07400C0E07440C0E0120DADE58124D8
:100AC000FAF581D003D002020B8D752350E4F52492
:100AD000C002C00374EFC0E07401C0E07480C0E0E5
:100AE0007448C0E07400C0E07440C0E0120DADE591
:100AF0008124FAF581D003D002020B8D75233CE4EA
:100B0000F524C002C0037400C0E07402C0E0748029
:100B1000C0E07448C0E07400C0E07440C0E0120D52
:100B2000ADE58124FAF581D003D0028060752328D9
:100B3000E4F524C002C0037411C0E07402C0E07484
:100B400080C0E07448C0E07400C0E07440C0E012AF
:100B50000DADE58124FAF581D003D002802F7523F5
:100B600014E4F524C002C0037422C0E07402C0E0A3
:100B70007480C0E07448C0E07400C0E07440C0E01D
:100B8000120DADE58124FAF581D003D0027527015D
:100B9000D20090003775F040C002C0031204C07547
:100BA0002702D20090004875F0401204C0D003D054
:100BB0000202066D20F71430F6148883A88220F50F
:100BC00007E6A88375830022E280F7E49322E022FF
:100BD000E4AC83AB82FAF9748E020F1BFFA8811874
:100BE00018120F43D2D133E6400730E70B7582016C
:100BF0002220E70675820022C2D1120F25E9700378
:100C0000F5822230D101B3E433F58222FFA88118A6
:100C100018120F43D2D133E6400730E70B7582003C
:100C20002220E70675820122C2D1120F25E9700346
:100C3000F5822220D101B3E433F58222120FF0BCF9
:100C40000003020F8FEF60FA30D502B2D1E583B412
:100C5000FF03020FA5E582B4FF03020FA525834021
:100C6000072482400B020F8F2483145003020FA528
:100C7000F582EA8DF0A4A8F0EA8EF0A428F8E43515
:100C8000F0F9EB8DF0A428E935F0F9E433CA8FF0E0
:100C9000A429F9EA35F0FAEBF88EF0A429F9EA353F
:100CA000F0FAE433FBEC8DF0A429F9EA35F0FAE42C
:100CB0003BFBE88FF0A42AFAEB35F0FBE433CCFDE4
:100CC0008EF0A42AFAEB35F0FBE43CFCED8FF0A4A7
:100CD0002BFBEC35F0FC20E703120FBD020F6EE595
:100CE000828511F0A4C582C0F08512F0A4D0F02551
:100CF000F0C5838511F0A42583F5832202163E8575
:100D0000826785836885F06985106A900CFC021003
:100D1000A7C008858108E50824FBF56AE50824FBDF
:100D2000F88667088668088669900CFC1210A7D0C0
:100D3000082210980280FBAA998A82C00212163EED
:100D4000D0028A822220F71030F6118883A88220F0
:100D5000F507F6A88375830022F280F7F022AA82B5
:100D6000AB09AC0AAD0B8B828C838DF0EA120D457A
:100D70000509E4B50902050A2285820985830A85E9
:100D8000F00B850C67850D68850E69850F6A900DDF
:100D90005E1210A7AA82AB83AC09AD0AAE0B8C829F
:100DA0008D838EF0E4120D458A828B8322C00885E4
:100DB0008108E50824F8F56AE50824FBF8860908A7
:100DC000860A08860BE50824F8F88667088668080E
:100DD0008669900D5E1210A7AA82AB83AC09AD0A9A
:100DE000AE0B8C828D838EF0E4120D458A828B834C
:100DF000D00822120FF030D502B2D1BF0009BC00DA
:100E000003020FB2020FA5BC0003020F8FE583B4EB
:100E1000FF0BE582B4FF03020FB2020F8FE582B42D
:100E2000FF03020FA5C395835007247F400B020FD9
:100E30008F2480145003020FA5C0E0E4CCCBCAF984
:100E40008D118E128F13EF54F0C4F514758306853F
:100E500014F0EB84F582E9C4F9EAC4FAEBC4FBECC4
:100E6000540FC47803D6FC18EBD6FB18EAD6FA85E3
:100E700082F0EDA4A8F0FD8582F0EEA428FEE43512
:100E8000F0F88582F0EFA428FFE435F0F8E99DF949
:100E9000EA9EFAEB9FFBEC98FCAD11AE12AF13305B
:100EA000E7101582E92DF9EA3EFAEB3FFBE43CFC42
:100EB00080EDC082D58398C3E933F9EA33FAEB3386
:100EC000FBEC33FCC3E99DEA9EEB9FEC9400B3E49A
:100ED00013F9D002D0E0C44AFAD003D0E0C44BFBEF
:100EE000D004D0E0F5F0540FC44CFCD08215823011
:100EF000F40FD3EC13FCEB13FBEA13FAE913F90537
:100F000082E930E70A74012AFAE43BFBE43CFC0284
:100F10000F86FCABF0AA83A982749EC2D1F582121F
:100F20000FBD020F6E7901AA82E68F82B582131877
:100F3000E6B5F00E18E6B5830918E68A82B5820296
:100F4000790022B4800FE5F0700AE5837006E5822F
:100F500070027F00EFB6801518B6001018B6000BAF
:100F600018B6000608080876002208080822B9808A
:100F700003EA13B34010EA2401FAE43BFBE43CFC2F
:100F800050047C800582BC000EBB000BBA0008E454
:100F9000F5F0F583F58222A2D1E582138CF092F769
:100FA0008B838A8222E4F583F58275F080F4A2D1E6
:100FB0001322E4F583F58275F0C0747F227804EC87
:100FC0007011E58224F8500AF582E4C9CACBFCD836
:100FD000EF22EC7820058220E713D5820122C3E9B5
:100FE00033F9EA33FAEB33FBEC33FCD8EA1582220F
:100FF000AA82AB83A2F73392D16002D2F7F582AC1A
:10100000F0E58124F9F8E6FD08E6FE0886F008E63A
:10101000A2F73392D56002D2F7F583AFF022AA820D
:10102000742FC0E07410C0E0C059C05A8A822205F3
:1010300060E4B56002056122AA8274302AFA24C6EF
:10104000500A74072AFA3001034302208A820210F0
:101050001EE582FAC4540FF582C002121038D00285
:10106000740F5AF582021038AA5BAB5CAC5DAD5EC2
:10107000AE5F756620EE2EFEED235401FF4206EAB8
:101080002AFAEB33FBEC33FCED33FDC3EE95624003
:1010900008EEC39562FE430201D566D98A5B8B5C7C
:1010A0008C5D8D5E8E5F2285825985835AE4F56062
:1010B000F561AA67AB68AC698A828B838CF0120BEE
:1010C000B4FD74012AF567E43BF5688C69EDFA70AC
:1010D00003021637BA2502800302162FC205C20684
:1010E000C207C208C209C20AC20BC20CC202C203B2
:1010F000C2047562007563007564FFAB67AC68ADD0
:10110000698B828C838DF0120BB4FAA3AB82AC8313
:101110008B678C688D69BA25078A8212101E8092AF
:101120008A06BE3000402E8A06EE24C6402774FF91
:10113000B56413E56375F00AA4FEEA24D02EF563C6
:1011400070BFD20680BBE56475F00AA4FEEA24D025
:101150002EF56480ACBA2E0A74FFB564A4756400E1
:10116000809F8A06BE6100400E8A06EE24854007F5
:101170005302DFD2018002C201BA20028075BA2375
:1011800003021202BA2A03021207BA2B02805FBAC4
:101190002D028055BA4202805FBA430302124CBA54
:1011A0004403021387BA45030213A1BA460302138C
:1011B0009DBA47030213A5BA4903021387BA4C022A
:1011C000803BBA4E030213A9BA4F0302138EBA50E2
:1011D00003021320BA5303021270BA550302139389
:1011E000BA58030213980213D3D205021101D20791
:1011F000021101D208021101D20A021101D20B021E
:101200001101D20C02110174FFB56420300A0BE504
:101210006A14F8886A8663021101E56A24FEF88878
:101220006A8606088607188E63021101300A0BE5EC
:101230006A14F8886A8664021101E56A24FEF88857
:101240006A8606088607188E64021101300A0AE5CC
:101250006A14F8886A8602800FE56A24FEF8886AB4
:101260008603088604188B028A8212101E0213D885
:10127000E56A24FDF8886A8603088604088605184E
:10128000188B5B8C5C8D5D8B828C838DF01216537A
:10129000AB82AC838B6574FFB56403856564200500
:1012A0001DC3E56595635016E563C39565F563ABAE
:1012B000631563EB600875822012101E80F1855B58
:1012C00082855C83855DF0120BB4FBFA6029AB6408
:1012D0001564C3E464808BF063F08095F050188A45
:1012E0008212101EAB5BAC5CAD5D0BBB00010C8BC6
:1012F0005B8C5C8D5D80C72005030213D8C3E56558
:10130000956340030213D8E563C39565F563AB634A
:101310001563EB70030213D875822012101E80EE45
:10132000E56A24FDF8886A8603088604088605189D
:10133000188B5B8C5C8D5DE55DFB30E7047A438048
:1013400013EB546060047A50800AEB30E6047A496B
:1013500080027A588A82C00212101E75823A1210D8
:101360001E75823012101E75827812101ED002BABD
:101370004902800BBA50028006855C8212105185AA
:101380005B821210518051D20975620A804A7562DF
:1013900008804575620A8040756210803BD20280E9
:1013A00037D2038033D204802FE56A24FDF8886A9F
:1013B000860308860408860518188B5B8C5C8D5D97
:1013C0008B828C838DF0E560120D45A3E561120DD3
:1013D0004580058A8212101E200206200303300475
:1013E0005AE56A24FCF8886A86030886040886059C
:1013F0000886061818188B5B8C5C8D5D8E5E755B9D
:1014000033755C02755D80855B6B855C6C855D6D9D
:101410007401256BFEE4356CFFAB6D8E5B8F5C8BCE
:101420005D856B82856C83856DF0120BB4FBFA7061
:10143000030210B28A8212101E80CCE56270030291
:1014400010B27B1A300A2BE56A14F8886AE6FC337E
:1014500095E0FDFEFF8C5B8D5C8E5D8F5E20095EEE
:10146000AC5B7D007E007F008C5B8D5C8E5D8F5E53
:10147000804C300B1FE56A24FCF8886A86040886D5
:10148000050886060886071818188C5B8D5C8E5D2B
:101490008F5E802AE56A24FEF8886A86040886053D
:1014A00018ED3395E0FEFF8C5B8D5C8E5D8F5E20CA
:1014B000090CAC5BAD5C7E007F008E5D8F5E300CF6
:1014C00043E55B455C455D455E60397408B5620C7B
:1014D000758230C00312101ED00380287410B562CC
:1014E00023758230C00312101ED00330010C7582A8
:1014F00078C00312101ED003800A758258C00312F0
:10150000101ED003300925AC5BAD5CAE5DE55EFF1F
:1015100030E717C3E49CFCE49DFDE49EFEE49FFFDE
:101520008C5B8D5C8E5D8F5E8002C209756500D21A
:101530000D8B00755F00C000121068D000200D0DEB
:10154000E55FC4FCE6FD4CF61888038002A65F0543
:1015500065B20DE55B455C455D455E70D68803E58B
:1015600063700375630120061A200517E56504FC06
:10157000C39563500E758220C00312101ED0031550
:101580006380E930090E75822DC00312101ED0034E
:1015900015638024E565602030070E75822BC0033B
:1015A00012101ED0031563800F30080C758220C006
:1015B0000312101ED003156320051EAC631563C310
:1015C000E5659C50273006047C3080027C208C82AC
:1015D000C00312101ED00380E2C3E5659563500975
:1015E000E563C39565F56380037563008B00AB65A8
:1015F0001565EB6022B20D200D0A08E6C4540FFBFE
:101600008B5F80078603740F5BF55F855F82C00088
:10161000121038D00080D72005030210B2AB63153A
:1016200063EB70030210B275822012101E80EE8AE6
:101630008212101E0210B285608285618322AA8206
:10164000BA0A0810990280FB75990D10990280FB67
:101650008A9922AA82AB83ACF07D007E008A828BBD
:10166000838CF0120BB4FFA3AA82AB83EF60070D4B
:10167000BD00EA0E80E78D828E832200000000000C
:00000001FF
