:1000000002002EE4F50CF50D22000002021B000098
:1000200000000000000000000000000202237581B3
:100030003612013CE582600302009A780079007A6A
:10004000007B007C007D00EC4D601C88828983E48D
:1000500093A3A882A9838A828B83F0A3AA82AB830D
:100060001CBCFFE31D80E07582007583007C007D71
:1000700000EC4D600AE4F0A31CBCFFF51D80F27596
:1000800082007583007C007D00EC4D600AE4F0A3E3
:100090001CBCFFF51D80F212000312042180FE1B20
:1000A0005B324A0045464D382072656D6F74650AB3
:1000B00046696C653A2025730A436F6D70696C65FB
:1000C000643A2025732C2025730A0A00433A5C55B4
:1000D000736572735C70657465725C446F63756D93
:1000E000656E74735C454C45433239315C50726FB8
:1000F0006A656374325C50726F6A6563742D322D69
:10010000547261636B696E672D526F626F745C64C9
:100110006F635C72656D6F74652E63004D61722054
:10012000323320323032330031333A34313A3130E5
:10013000003C4E4F20464C4F41543E0075A7007581
:1001400097DE7597AD43FF8075EF0275A71075C1F7
:100150002075A70075A90075A900E5A930E7FB7512
:10016000A90375A903E5A930E7FB43A41075E101D4
:1001700075E20075E340759810858E8E758DE68565
:100180008D8B53890F438920D28ED299758200229C
:10019000AA82438E407592B87593FF859294859399
:1001A000957591047B00C3EB9A500BE59130E7FB0A
:1001B00053917F0B80F075910022AA82AB83BA0025
:1001C00004BB0001227582F9C002C00312019075C0
:1001D00082F91201907582F91201907582FA12016A
:1001E00090D003D0021ABAFF011B80D2438E025373
:1001F00089F0438902758AD2758CD2D2A9D2AFC256
:100200008C2275C800438E1075CA6075CB7375CE8D
:10021000FF75CFFFD2AFD2ADC2CA2275A700B2A080
:10022000B2A132C0E0C0D075D00075A700C2CF0522
:100230000CE4B50C02050D74C8B50C06E4B50D024E
:100240008002800DE4F50CF50DD296C2A0D2A1D2A9
:100250008C7464B50C06E4B50D0280028004C2966D
:10026000C28CD0D0D0E032D2A5758228120190C2C3
:10027000A522AA828AE0A2E792A1A2E692A2A2E522
:1002800092A3A2E492A4C00212026775822812010E
:1002900090D0028AE0A2E392A1A2E292A2A2E1920D
:1002A000A3A2E092A4020267AA82D2A68A821202C4
:1002B000729000020201BAAA82C2A68A8212027257
:1002C0009000050201BAC2A59000141201BA75820D
:1002D000331202B77582331202B77582321202B737
:1002E0007582281202B775820C1202B7758201124C
:1002F00002B79000140201BAAA82AB83ACF0740278
:10030000B50E047DC080027D808D82C002C003C016
:10031000041202B79000051201BAD004D003D00233
:100320007D007E00ED2AFFEE3BF88C018F828883F2
:1003300089F012048CFF60208F82C002C003C004C9
:10034000C005C0061202A8D006D005D004D003D044
:10035000020DBD00CF0E80CC3000248D028E03C371
:10036000EA9410EB648094805015758220C002C01E
:10037000031202A8D003D0020ABA00E30B80E022E5
:1003800085821185831285F013E4F514F515E50FC8
:1003900024FFFFE51034FFF879007A00C3E99FEAF3
:1003A000648088F063F08095F05059C002C007C0A7
:1003B00000C0011204DEAB82D001D000D007D00211
:1003C000BB0A028003BB0D1DE5142511FCE51535A4
:1003D00012FDAE138C828D838EF0E41204F185142D
:1003E0008285158322E92511FCEA3512FDAE138CB6
:1003F000828D838EF0EB1204F109B900010A891491
:100400008A158098E5142511FAE5153512FBAC1311
:100410008A828B838CF0E41204F1850F828510832D
:1004200022C2A0D2A19001F41201BA750AC8E4F563
:100430000B1201EC120202749FC0E07400C0E07461
:1004400080C0E01204BD1581158115817428C0E0BB
:100450007401C0E07480C0E0741CC0E07401C0E0AE
:100460007480C0E074CCC0E07400C0E07480C0E070
:1004700074A4C0E07400C0E07480C0E01204BDE564
:100480008124F4F5811202C6D2CA80FE20F714300E
:10049000F6148883A88220F507E6A88375830022D6
:1004A000E280F7E49322E022020B2A8582308583E2
:1004B0003185F0328516339004A8020593C0088573
:1004C0008108E50824FBF533E50824FBF8863008AD
:1004D00086310886329004A8120593D0082210981D
:1004E0000280FBAA998A82C002120B2AD0028A8259
:1004F0002220F71030F6118883A88220F507F6A88D
:100500008375830022F280F7F022AA82741BC0E078
:100510007405C0E0C022C0238A82220529E4B529DF
:1005200002052A22AA8274302AFA24C6500A7407C5
:100530002AFA3001034302208A8202050AE582FA80
:10054000C4540FF582C002120524D002740F5AF56C
:1005500082020524AA24AB25AC26AD27AE28752F30
:1005600020EE2EFEED235401FF4206EA2AFAEB3379
:10057000FBEC33FCED33FDC3EE952B4008EEC39549
:100580002BFE430201D52FD98A248B258C268D275B
:100590008E2822858222858323E4F529F52AAA3034
:1005A000AB31AC328A828B838CF012048CFD7401E7
:1005B0002AF530E43BF5318C32EDFA7003020B235F
:1005C000BA25028003020B1BC205C206C207C2087D
:1005D000C209C20AC20BC20CC202C203C204752BFA
:1005E00000752C00752DFFAB30AC31AD328B828C99
:1005F000838DF012048CFAA3AB82AC838B308C31E8
:100600008D32BA25078A8212050A80928A06BE3088
:1006100000402E8A06EE24C6402774FFB52D13E550
:100620002C75F00AA4FEEA24D02EF52C70BFD20659
:1006300080BBE52D75F00AA4FEEA24D02EF52D80AE
:10064000ACBA2E0A74FFB52DA4752D00809F8A06C2
:10065000BE6100400E8A06EE248540075302DFD2B9
:10066000018002C201BA20028075BA23030206EE9D
:10067000BA2A030206F3BA2B02805FBA2D02805514
:10068000BA4202805FBA4303020738BA4403020841
:1006900073BA450302088DBA4603020889BA4703B4
:1006A000020891BA4903020873BA4C02803BBA4E61
:1006B00003020895BA4F0302087ABA500302080CE5
:1006C000BA530302075CBA550302087FBA58030203
:1006D00008840208BFD2050205EDD2070205EDD25B
:1006E000080205EDD20A0205EDD20B0205EDD20C8F
:1006F0000205ED74FFB52D20300A0BE53314F888A0
:1007000033862C0205EDE53324FEF888338606088F
:100710008607188E2C0205ED300A0BE53314F88895
:1007200033862D0205EDE53324FEF888338606086E
:100730008607188E2D0205ED300A0AE53314F88875
:10074000338602800FE53324FEF88833860308865B
:1007500004188B028A8212050A0208C4E53324FDBC
:10076000F88833860308860408860518188B248CBD
:10077000258D268B828C838DF0120B3FAB82AC8350
:100780008B2E74FFB52D03852E2D20051DC3E52E60
:10079000952C5016E52CC3952EF52CAB2C152CEB77
:1007A000600875822012050A80F1852482852583E0
:1007B0008526F012048CFBFA6029AB2D152DC3E4BD
:1007C00064808BF063F08095F050188A8212050ADD
:1007D000AB24AC25AD260BBB00010C8B248C258DE6
:1007E0002680C72005030208C4C3E52E952C4003CC
:1007F0000208C4E52CC3952EF52CAB2C152CEB7000
:10080000030208C475822012050A80EEE53324FD38
:10081000F88833860308860408860518188B248C0C
:10082000258D26E526FB30E7047A438013EB5460E0
:1008300060047A50800AEB30E6047A4980027A58E4
:100840008A82C00212050A75823A12050A75823040
:1008500012050A75827812050AD002BA4902800B85
:10086000BA5002800685258212053D852482120534
:100870003D8051D209752B0A804A752B0880457539
:100880002B0A8040752B10803BD2028037D2038028
:1008900033D204802FE53324FDF88833860308869D
:1008A0000408860518188B248C258D268B828C8352
:1008B0008DF0E5291204F1A3E52A1204F180058ADE
:1008C0008212050A20020620030330045AE533246D
:1008D000FCF888338603088604088605088606180F
:1008E00018188B248C258D268E27752431752501AB
:1008F0007526808524348525358526367401253472
:10090000FEE43535FFAB368E248F258B2685348269
:100910008535838536F012048CFBFA700302059E40
:100920008A8212050A80CCE52B700302059E7B1D8E
:10093000300A2BE53314F88833E6FC3395E0FDFEEE
:10094000FF8C248D258E268F2720095EAC247D0008
:100950007E007F008C248D258E268F27804C300BC7
:100960001FE53324FCF888338604088605088606CC
:100970000886071818188C248D258E268F27802A24
:10098000E53324FEF88833860408860518ED339590
:10099000E0FEFF8C248D258E268F2720090CAC24A9
:1009A000AD257E007F008E268F27300C43E5244541
:1009B000254526452760397408B52B0C758230C053
:1009C0000312050AD00380287410B52B23758230DA
:1009D000C00312050AD00330010C758278C00312DF
:1009E000050AD003800A758258C00312050AD00395
:1009F000300925AC24AD25AE26E527FF30E717C327
:100A0000E49CFCE49DFDE49EFEE49FFF8C248D2588
:100A10008E268F278002C209752E00D20D8B00759D
:100A20002800C000120554D000200D0DE528C4FC9C
:100A3000E6FD4CF61888038002A628052EB20DE5C7
:100A40002445254526452770D68803E52C70037577
:100A50002C0120061A200517E52E04FCC3952C5006
:100A60000E758220C00312050AD003152C80E930D0
:100A7000090E75822DC00312050AD003152C80249F
:100A8000E52E602030070E75822BC00312050AD0B8
:100A900003152C800F30080C758220C00312050A44
:100AA000D003152C20051EAC2C152CC3E52E9C5014
:100AB000273006047C3080027C208C82C003120523
:100AC0000AD00380E2C3E52E952C5009E52CC3958E
:100AD0002EF52C8003752C008B00AB2E152EEB60B1
:100AE00022B20D200D0A08E6C4540FFB8B288007A4
:100AF0008603740F5BF528852882C000120524D078
:100B00000080D720050302059EAB2C152CEB70034B
:100B100002059E75822012050A80EE8A8212050A5D
:100B200002059E852982852A8322AA82BA0A081094
:100B3000990280FB75990D10990280FB8A9922AA6F
:100B400082AB83ACF07D007E008A828B838CF012B6
:100B5000048CFFA3AA82AB83EF60070DBD00EA0EF1
:100B600080E78D828E8322000000000000000000DC
:00000001FF
