:1000000002002EE4F50CF50D22000002033600007C
:10002000000000000000000000000002033E758197
:100030004012018EE582600302009A780079007A0E
:10004000007B007C007D00EC4D601C88828983E48D
:1000500093A3A882A9838A828B83F0A3AA82AB830D
:100060001CBCFFE31D80E07582007583007C007D71
:1000700000EC4D600AE4F0A31CBCFFF51D80F27596
:1000800082007583007C007D00EC4D600AE4F0A3E3
:100090001CBCFFF51D80F212000312053980FE1B07
:1000A0005B324A0045464D382072656D6F74650AB3
:1000B00046696C653A2025730A436F6D70696C65FB
:1000C000643A2025732C2025730A0A00433A5C55B4
:1000D000736572735C6E617468615C446F776E6C9B
:1000E0006F6164735C5542435C596561725F325C59
:1000F0005465726D5F325C454C45433239315C501A
:10010000726F6A65637420325C50726F6A656374E3
:100110002D322D547261636B696E672D526F626F61
:10012000745C646F635C72656D6F74652E63004D03
:10013000617220323720323032330031343A343178
:100140003A3432004E535F566F6C743A20256C6619
:100150000A0045575F566F6C743A20256C660A009A
:1001600079203D2025640A0078203D2025640A007E
:10017000426561636F6E20546F67676C65643A20F7
:100180002564003C4E4F20464C4F41543E0075A71D
:10019000007597DE7597AD43FF8075EF0275A71068
:1001A00075C12075A70075A90075A900E5A930E7FC
:1001B000FB75A90375A903E5A930E7FB43A41075F6
:1001C000E10175E20075E340759810858E8E758D9E
:1001D000E6858D8B53890F438920D28ED299758203
:1001E000002275A700C2EF75B28075BC2075B91EDC
:1001F00075E80075DF3F75B300D2EF22AA82438E07
:10020000407592B87593FF85929485939575910486
:100210007B00C3EB9A500BE59130E7FB53917F0BCA
:1002200080F075910022AA82AB83BA0004BB000162
:10023000227582F9C002C0031201FC7582F9120115
:10024000FC7582F91201FC7582FA1201FCD003D010
:10025000021ABAFF011B80D2AA828537F005F0741A
:1002600001800225E0D5F0FBFB75A720BA000280D3
:100270000ABA0102800FBA021E8014EBF4FA52F19E
:10028000EB42D48012EBF4FA52F2EB42D58008EB49
:10029000F4FA52F3EB42CC75A700228582BBC2ED83
:1002A000D2EC30EDFD85BD8285BE832212029B1209
:1002B000090DAA82AB83ACF0FDC002C003C004C02C
:1002C00005906C8B75F0537440120979AA82AB8348
:1002D000ACF0FDE58124FCF581E4C0E074FCC0E0F5
:1002E000747FC0E07446C0E08A828B838CF0ED128C
:1002F0000A9BAA82AB83ACF0FDE58124FCF5818AE0
:10030000828B838CF0ED22438E025389F043890265
:10031000758AD2758CD2D2A9D2AFC28C2275C80090
:10032000438E1075CA6075CB7375CEFF75CFFFD243
:10033000AFD2ADC2CA2275A700B2A0B2A132C0E04E
:10034000C0D075D00075A700C2CF050CE4B50C0273
:10035000050D74C8B50C06E4B50D028002800DE4ED
:10036000F50CF50DD296C2A0D2A1D28CE50AB50C3F
:1003700009E50BB50D04C296C28CD0D0D0E032D2C4
:10038000A57582281201FCC2A522AA828AE0A2E7F2
:1003900092A1A2E692A2A2E592A3A2E492A4C00234
:1003A00012037F7582281201FCD0028AE0A2E39238
:1003B000A1A2E292A2A2E192A3A2E092A402037FF0
:1003C000AA82D2A68A8212038A900002020226AA78
:1003D00082C2A68A8212038A900005020226C2A562
:1003E0009000141202267582331203CF75823312E5
:1003F00003CF7582321203CF7582281203CF758224
:100400000C1203CF7582011203CF90001402022652
:10041000AA82AB83ACF07402B50E047DC080027D6D
:10042000808D82C002C003C0041203CF9000051269
:100430000226D004D003D0027D007E00ED2AFFEE1C
:100440003BF88C018F82888389F01208F1FF6020CD
:100450008F82C002C003C004C005C0061203C0D012
:1004600006D005D004D003D0020DBD00CF0E80CC45
:100470003000248D028E03C3EA9410EB64809480D4
:100480005015758220C002C0031203C0D003D002F1
:100490000ABA00E30B80E02285821185831285F081
:1004A00013E4F514F515E50F24FFFFE51034FFF80C
:1004B00079007A00C3E99FEA648088F063F0809550
:1004C000F05059C002C007C000C001120A6FAB82D1
:1004D000D001D000D007D002BB0A028003BB0D1DA3
:1004E000E5142511FCE5153512FDAE138C828D83C4
:1004F0008EF0E4120A8285148285158322E9251183
:10050000FCEA3512FDAE138C828D838EF0EB120A5D
:100510008209B900010A89148A158098E514251109
:10052000FAE5153512FBAC138A828B838CF0E4124A
:100530000A82850F8285108322751A01E4F51BC299
:10054000A0D2A19001F412022612030712031D7417
:100550009FC0E07400C0E07480C0E0120A4E1581B4
:1005600015811581743BC0E07401C0E07480C0E067
:10057000742FC0E07401C0E07480C0E074CCC0E0AF
:100580007400C0E07480C0E074A4C0E07400C0E0F7
:100590007480C0E0120A4EE58124F4F5811203DE76
:1005A000D2CA7537017582011202587537027582F9
:1005B000011202581201E27582071202ACAC82AD40
:1005C00083AEF0FF758208C004C005C006C00712E4
:1005D00002AC85821685831785F018F519D007D0EF
:1005E00006D005D004C004C005C006C007C004C0C2
:1005F00005C006C0077444C0E07401C0E07480C048
:10060000E0120A4EE58124F9F581C016C017C01822
:10061000C0197452C0E07401C0E07480C0E0120AD6
:100620004EE58124F9F581D007D006D005D004C06D
:1006300004C005C006C00774CDC0E074CCC0E0742F
:100640008CC0E0743FC0E08C828D838EF0EF120985
:1006500049AA82E58124FCF581D007D006D005D0D7
:1006600004EA602A7A027B00C002C0037402C0E080
:10067000E4C0E07460C0E07401C0E07480C0E012C7
:100680000A4EE58124FBF581D003D002807574CD3C
:10069000C0E074CCC0E0740CC0E07440C0E08C8258
:1006A0008D838EF0EF120919AC82E58124FCF5816F
:1006B000EC60287A007B00C002C003E4C0E0C0E028
:1006C0007460C0E07401C0E07480C0E0120A4EE5BE
:1006D0008124FBF581D003D00280287A017B00C001
:1006E00002C0037401C0E0E4C0E07460C0E07401C3
:1006F000C0E07480C0E0120A4EE58124FBF581D091
:1007000003D002C002C00374CDC0E074CCC0E0745A
:100710008CC0E0743FC0E08516828517838518F091
:10072000E519120949AC82E58124FCF581D003D09A
:1007300002EC60317C007D00C002C003C004C00533
:10074000E4C0E0C0E07468C0E07401C0E07480C040
:10075000E0120A4EE58124FBF581D005D004D003D8
:10076000D0020207F8C002C00374CDC0E074CCC050
:10077000E0740CC0E07440C0E08516828517838564
:1007800018F0E519120919AE82E58124FCF581D033
:1007900003D002EE60327C027D00C002C003C004C0
:1007A000C0057402C0E0E4C0E07468C0E07401C039
:1007B000E07480C0E0120A4EE58124FBF581D0058B
:1007C000D004D003D00280307C017D00C002C00381
:1007D000C004C0057401C0E0E4C0E07468C0E07407
:1007E00001C0E07480C0E0120A4EE58124FBF5816F
:1007F000D005D004D003D00230933B2093FDE51AFE
:10080000451BB40100E433FE8E1A751B00C002C004
:1008100003C004C005C01AC01B7470C0E07401C0DE
:10082000E07480C0E0120A4EE58124FBF581D0051A
:10083000D004D003D002E51A451B6009750AC8E44C
:10084000F50B0208E88A378B3890000AC004C0050F
:10085000120A1CE5828583F0D005D0042CFAED3510
:10086000F0FBBA0005BB00028060BA0105BB0002C4
:100870008050BA0205BB00028040BA0A05BB0002E4
:100880008050BA0C05BB00028028BA1405BB0002D8
:100890008048BA1505BB00028008BA1645BB004265
:1008A0008008750AB4E4F50B803E750AA0E4F50BE8
:1008B0008036750A8CE4F50B802E750A78E4F50B0A
:1008C0008026750A64E4F50B801E750A50E4F50B6A
:1008D0008016750A3CE4F50B800E750A28E4F50BCA
:1008E0008006750A14E4F50B9001F4120226020545
:1008F000B720F71430F6148883A88220F507E6A8FD
:100900008375830022E280F7E49322E022E4AC8343
:10091000AB82FAF9748E020BC3FFA8811818120B70
:10092000EBD2D133E6400730E70B7582012220E796
:100930000675820022C2D1120BCDE97003F5822226
:1009400030D101B3E433F58222FFA8811818120BCD
:10095000EBD2D133E6400730E70B7582002220E767
:100960000675820122C2D1120BCDE97003F58222F5
:1009700020D101B3E433F58222120C98BC000302AB
:100980000C37EF60FA30D502B2D1E583B4FF030231
:100990000C4DE582B4FF03020C4D258340072482F1
:1009A000400B020C372483145003020C4DF582EAED
:1009B0008DF0A4A8F0EA8EF0A428F8E435F0F9EB65
:1009C0008DF0A428E935F0F9E433CA8FF0A429F9B1
:1009D000EA35F0FAEBF88EF0A429F9EA35F0FAE4FA
:1009E00033FBEC8DF0A429F9EA35F0FAE43BFBE89F
:1009F0008FF0A42AFAEB35F0FBE433CCFD8EF0A4A3
:100A00002AFAEB35F0FBE43CFCED8FF0A42BFBEC79
:100A100035F0FC20E703120C65020C16E5828537E1
:100A2000F0A4C582C0F08538F0A4D0F025F0C583CD
:100A30008537F0A42583F583220212E6858230856E
:100A4000833185F032851C33900A39020D4FC0087E
:100A5000858108E50824FBF533E50824FBF886309A
:100A6000088631088632900A39120D4FD0082210BC
:100A7000980280FBAA998A82C0021212E6D0028AEA
:100A8000822220F71030F6118883A88220F507F61D
:100A9000A88375830022F280F7F022120C9830D5DB
:100AA00002B2D1BF0009BC0003020C5A020C4DBCBB
:100AB0000003020C37E583B4FF0BE582B4FF0302A9
:100AC0000C5A020C37E582B4FF03020C4DC3958328
:100AD0005007247F400B020C372480145003020C73
:100AE0004DC0E0E4CCCBCAF98D378E388F39EF5446
:100AF000F0C4F53A758306853AF0EB84F582E9C4D3
:100B0000F9EAC4FAEBC4FBEC540FC47803D6FC1822
:100B1000EBD6FB18EAD6FA8582F0EDA4A8F0FD85A5
:100B200082F0EEA428FEE435F0F88582F0EFA428E8
:100B3000FFE435F0F8E99DF9EA9EFAEB9FFBEC98AB
:100B4000FCAD37AE38AF3930E7101582E92DF9EA40
:100B50003EFAEB3FFBE43CFC80EDC082D58398C3BA
:100B6000E933F9EA33FAEB33FBEC33FCC3E99DEAF2
:100B70009EEB9FEC9400B3E413F9D002D0E0C44A9A
:100B8000FAD003D0E0C44BFBD004D0E0F5F0540F12
:100B9000C44CFCD082158230F40FD3EC13FCEB1361
:100BA000FBEA13FAE913F90582E930E70A74012A2E
:100BB000FAE43BFBE43CFC020C2EFCABF0AA83A95C
:100BC00082749EC2D1F582120C65020C167901AABC
:100BD00082E68F82B5821318E6B5F00E18E6B5836B
:100BE0000918E68A82B58202790022B4800FE5F006
:100BF000700AE5837006E58270027F00EFB680150B
:100C000018B6001018B6000B18B6000608080876CB
:100C1000002208080822B98003EA13B34010EA242E
:100C200001FAE43BFBE43CFC50047C800582BC0000
:100C30000EBB000BBA0008E4F5F0F583F58222A2A2
:100C4000D1E582138CF092F78B838A8222E4F583BC
:100C5000F58275F080F4A2D11322E4F583F5827554
:100C6000F0C0747F227804EC7011E58224F8500AF9
:100C7000F582E4C9CACBFCD8EF22EC7820058220AB
:100C8000E713D5820122C3E933F9EA33FAEB33FBE8
:100C9000EC33FCD8EA158222AA82AB83A2F7339206
:100CA000D16002D2F7F582ACF0E58124F9F8E6FDD7
:100CB00008E6FE0886F008E6A2F73392D56002D275
:100CC000F7F583AFF022AA8274D7C0E0740CC0E0BD
:100CD000C022C0238A82220529E4B52902052A22DE
:100CE000AA8274302AFA24C6500A74072AFA3001FC
:100CF000034302208A82020CC6E582FAC4540FF52F
:100D000082C002120CE0D002740F5AF582020CE08D
:100D1000AA24AB25AC26AD27AE28752F20EE2EFEDB
:100D2000ED235401FF4206EA2AFAEB33FBEC33FCD5
:100D3000ED33FDC3EE952B4008EEC3952BFE430229
:100D400001D52FD98A248B258C268D278E282285A4
:100D50008222858323E4F529F52AAA30AB31AC320F
:100D60008A828B838CF01208F1FD74012AF530E43D
:100D70003BF5318C32EDFA70030212DFBA250280A6
:100D8000030212D7C205C206C207C208C209C20ABC
:100D9000C20BC20CC202C203C204752B00752C0028
:100DA000752DFFAB30AC31AD328B828C838DF01260
:100DB00008F1FAA3AB82AC838B308C318D32BA252B
:100DC000078A82120CC680928A06BE3000402E8AA4
:100DD00006EE24C6402774FFB52D13E52C75F00AE6
:100DE000A4FEEA24D02EF52C70BFD20680BBE52DE0
:100DF00075F00AA4FEEA24D02EF52D80ACBA2E0A96
:100E000074FFB52DA4752D00809F8A06BE61004039
:100E10000E8A06EE248540075302DFD2018002C20B
:100E200001BA20028075BA2303020EAABA2A03026D
:100E30000EAFBA2B02805FBA2D028055BA420280F3
:100E40005FBA4303020EF4BA440302102FBA4503FB
:100E5000021049BA4603021045BA470302104DBAC0
:100E6000490302102FBA4C02803BBA4E03021051C4
:100E7000BA4F03021036BA5003020FC8BA53030226
:100E80000F18BA550302103BBA5803021040021063
:100E90007BD205020DA9D207020DA9D208020DA925
:100EA000D20A020DA9D20B020DA9D20C020DA9740F
:100EB000FFB52D20300A0BE53314F88833862C0259
:100EC0000DA9E53324FEF888338606088607188EB8
:100ED0002C020DA9300A0BE53314F88833862D0255
:100EE0000DA9E53324FEF888338606088607188E98
:100EF0002D020DA9300A0AE53314F88833860280E2
:100F00000FE53324FEF888338603088604188B0225
:100F10008A82120CC6021080E53324FDF8883386DD
:100F20000308860408860518188B248C258D268BCB
:100F3000828C838DF01212FBAB82AC838B2E74FFFC
:100F4000B52D03852E2D20051DC3E52E952C50169D
:100F5000E52CC3952EF52CAB2C152CEB6008758277
:100F600020120CC680F18524828525838526F01207
:100F700008F1FBFA6029AB2D152DC3E464808BF0DA
:100F800063F08095F050188A82120CC6AB24AC2511
:100F9000AD260BBB00010C8B248C258D2680C72031
:100FA0000503021080C3E52E952C4003021080E556
:100FB0002CC3952EF52CAB2C152CEB700302108056
:100FC000758220120CC680EEE53324FDF888338646
:100FD0000308860408860518188B248C258D26E5C1
:100FE00026FB30E7047A438013EB546060047A50A8
:100FF000800AEB30E6047A4980027A588A82C0027D
:10100000120CC675823A120CC6758230120CC67567
:101010008278120CC6D002BA4902800BBA50028004
:1010200006852582120CF9852482120CF98051D292
:1010300009752B0A804A752B088045752B0A80405C
:10104000752B10803BD2028037D2038033D20480CC
:101050002FE53324FDF888338603088604088605C7
:1010600018188B248C258D268B828C838DF0E52996
:10107000120A82A3E52A120A8280058A82120CC60D
:1010800020020620030330045AE53324FCF8883399
:1010900086030886040886050886061818188B2417
:1010A0008C258D268E2775248375250175268085D0
:1010B000243485253585263674012534FEE43535FE
:1010C000FFAB368E248F258B26853482853583852C
:1010D00036F01208F1FBFA7003020D5A8A82120CE4
:1010E000C680CCE52B7003020D5A7B40300A2BE5FD
:1010F0003314F88833E6FC3395E0FDFEFF8C248D35
:10110000258E268F2720095EAC247D007E007F007F
:101110008C248D258E268F27804C300B1FE53324A1
:10112000FCF88833860408860508860608860718B2
:1011300018188C248D258E268F27802AE53324FECF
:10114000F88833860408860518ED3395E0FEFF8C99
:10115000248D258E268F2720090CAC24AD257E00FA
:101160007F008E268F27300C43E5244525452645F4
:101170002760397408B52B0C758230C003120CC679
:10118000D00380287410B52B23758230C003120C55
:10119000C6D00330010C758278C003120CC6D00390
:1011A000800A758258C003120CC6D003300925ACE2
:1011B00024AD25AE26E527FF30E717C3E49CFCE409
:1011C0009DFDE49EFEE49FFF8C248D258E268F27B7
:1011D0008002C209752E00D20D8B00752800C00058
:1011E000120D10D000200D0DE528C4FCE6FD4CF6D4
:1011F0001888038002A628052EB20DE52445254552
:1012000026452770D68803E52C7003752C0120062F
:101210001A200517E52E04FCC3952C500E7582206C
:10122000C003120CC6D003152C80E930090E75825C
:101230002DC003120CC6D003152C8024E52E60208F
:1012400030070E75822BC003120CC6D003152C80FC
:101250000F30080C758220C003120CC6D003152C69
:1012600020051EAC2C152CC3E52E9C5027300604FF
:101270007C3080027C208C82C003120CC6D003809C
:10128000E2C3E52E952C5009E52CC3952EF52C8054
:1012900003752C008B00AB2E152EEB6022B20D20B7
:1012A0000D0A08E6C4540FFB8B2880078603740FD1
:1012B0005BF528852882C000120CE0D00080D72082
:1012C0000503020D5AAB2C152CEB7003020D5A7559
:1012D0008220120CC680EE8A82120CC6020D5A853C
:1012E0002982852A8322AA82BA0A0810990280FBE1
:1012F00075990D10990280FB8A9922AA82AB83AC62
:10130000F07D007E008A828B838CF01208F1FFA3AF
:10131000AA82AB83EF60070DBD00EA0E80E78D82E5
:101320008E8322000000000000000000000000008A
:00000001FF
