:1000000002002EE4F50CF50D22000002031A000098
:1000200000000000000000000000000203227581B3
:1000300040120172E582600302009A780079007A2A
:10004000007B007C007D00EC4D601C88828983E48D
:1000500093A3A882A9838A828B83F0A3AA82AB830D
:100060001CBCFFE31D80E07582007583007C007D71
:1000700000EC4D600AE4F0A31CBCFFF51D80F27596
:1000800082007583007C007D00EC4D600AE4F0A3E3
:100090001CBCFFF51D80F212000312051D80FE1B23
:1000A0005B324A0045464D382072656D6F74650AB3
:1000B00046696C653A2025730A436F6D70696C65FB
:1000C000643A2025732C2025730A0A00433A5C55B4
:1000D000736572735C6E617468615C446F776E6C9B
:1000E0006F6164735C5542435C596561725F325C59
:1000F0005465726D5F325C454C45433239315C501A
:10010000726F6A65637420325C50726F6A656374E3
:100110002D322D547261636B696E672D526F626F61
:10012000745C646F635C72656D6F74652E63004D03
:10013000617220323820323032330031353A353373
:100140003A30380079203D2025640A0078203D208F
:1001500025640A00426561636F6E20546F67676CA7
:1001600065643A202564003C4E4F20464C4F415474
:100170003E0075A7007597DE7597AD43FF8075EF5C
:100180000275A71075C12075A70075A90075A90093
:10019000E5A930E7FB75A90375A903E5A930E7FBDD
:1001A00043A41075E10175E20075E3407598108570
:1001B0008E8E758DE6858D8B53890F438920D28E67
:1001C000D2997582002275A700C2EF75B28075BC06
:1001D0002075B91E75E80075DF3F75B300D2EF22B8
:1001E000AA82438E407592B87593FF859294859349
:1001F000957591047B00C3EB9A500BE59130E7FBBA
:1002000053917F0B80F075910022AA82AB83BA00D4
:1002100004BB0001227582F9C002C0031201E0751F
:1002200082F91201E07582F91201E07582FA120179
:10023000E0D003D0021ABAFF011B80D2AA82853710
:10024000F005F07401800225E0D5F0FBFB75A720D6
:10025000BA0002800ABA0102800FBA021E8014EBB3
:10026000F4FA52F1EB42D48012EBF4FA52F2EB4280
:10027000D58008EBF4FA52F3EB42CC75A700228547
:1002800082BBC2EDD2EC30EDFD85BD8285BE8322FE
:1002900012027F1208F5AA82AB83ACF0FDC002C047
:1002A00003C004C005906C8B75F053744012096153
:1002B000AA82AB83ACF0FDE58124FCF581E4C0E0CB
:1002C00074FCC0E0747FC0E07446C0E08A828B8317
:1002D0008CF0ED120A83AA82AB83ACF0FDE5812499
:1002E000FCF5818A828B838CF0ED22438E02538948
:1002F000F0438902758AD2758CD2D2A9D2AFC28C52
:100300002275C800438E1075CA6075CB7375CEFF19
:1003100075CFFFD2AFD2ADC2CA2275A700B2A0B2CC
:10032000A132C0E0C0D075D00075A700C2CF050CC7
:10033000E4B50C02050D74C8B50C06E4B50D0280D9
:1003400002800DE4F50CF50DD296C2A0D2A1D28C9C
:10035000E50AB50C09E50BB50D04C296C28CD0D0E8
:10036000D0E032D2A57582281201E0C2A522AA826D
:100370008AE0A2E792A1A2E692A2A2E592A3A2E459
:1003800092A4C0021203637582281201E0D0028A8F
:10039000E0A2E392A1A2E292A2A2E192A3A2E09241
:1003A000A4020363AA82D2A68A8212036E9000027C
:1003B00002020AAA82C2A68A8212036E9000050275
:1003C000020AC2A590001412020A7582331203B306
:1003D0007582331203B37582321203B37582281209
:1003E00003B375820C1203B37582011203B390003C
:1003F0001402020AAA82AB83ACF07402B50E047D2B
:10040000C080027D808D82C002C003C0041203B38D
:1004100090000512020AD004D003D0027D007E00B5
:10042000ED2AFFEE3BF88C018F82888389F0120859
:10043000D9FF60208F82C002C003C004C005C0067F
:100440001203A4D006D005D004D003D0020DBD0005
:10045000CF0E80CC3000248D028E03C3EA9410EBC3
:10046000648094805015758220C002C0031203A4DA
:10047000D003D0020ABA00E30B80E0228582118506
:10048000831285F013E4F514F515E50F24FFFFE55D
:100490001034FFF879007A00C3E99FEA648088F09D
:1004A00063F08095F05059C002C007C000C001122F
:1004B0000A57AB82D001D000D007D002BB0A02801D
:1004C00003BB0D1DE5142511FCE5153512FDAE131A
:1004D0008C828D838EF0E4120A6A851482851583DE
:1004E00022E92511FCEA3512FDAE138C828D838E34
:1004F000F0EB120A6A09B900010A89148A1580987A
:10050000E5142511FAE5153512FBAC138A828B83AD
:100510008CF0E4120A6A850F82851083227A017BAF
:1005200000C2A0D2A19001F4C002C00312020A12BC
:1005300002EB120301749FC0E07400C0E07480C03D
:10054000E0120A36158115811581743BC0E07401F3
:10055000C0E07480C0E0742FC0E07401C0E074801B
:10056000C0E074CCC0E07400C0E07480C0E074A44B
:10057000C0E07400C0E07480C0E0120A36E5812457
:10058000F4F5811203C2D2CA7537017582011202D5
:100590003C75370275820112023C1201C6D003D0AD
:1005A00002758207C002C0031202908582168583FD
:1005B0001785F018F51975820812029085821A8540
:1005C000831B85F01CF51D7433C0E0C0E074F3C0DC
:1005D000E0743FC0E08516828517838518F0E51921
:1005E000120931AE82E58124FCF581D003D002EE00
:1005F00060337E027F00C002C003C006C0077402E1
:10060000C0E0E4C0E07444C0E07401C0E07480C0A5
:10061000E0120A36E58124FBF581D007D006D0032D
:10062000D0020206B6C002C00374CDC0E074CCC0D4
:10063000E0742CC0E07440C0E08516828517838585
:1006400018F0E519120901AC82E58124FCF581D08E
:1006500003D002EC60307E007F00C002C003C00601
:10066000C007E4C0E0C0E07444C0E07401C0E074BE
:1006700080C0E0120A36E58124FBF581D007D00660
:10068000D003D00280307E017F00C002C003C006CC
:10069000C0077401C0E0E4C0E07444C0E07401C06D
:1006A000E07480C0E0120A36E58124FBF581D007B2
:1006B000D006D003D002C002C003C006C007743306
:1006C000C0E0C0E074F3C0E0743FC0E0851A8285EA
:1006D0001B83851CF0E51D120931AC82E58124FCE9
:1006E000F581D007D006D003D002EC60397C007DC4
:1006F00000C002C003C004C005C006C007E4C0E0DB
:10070000C0E0744CC0E07401C0E07480C0E0120A24
:1007100036E58124FBF581D007D006D005D004D082
:1007200003D0020207D1C002C003C006C00774CDC7
:10073000C0E074CCC0E0742CC0E07440C0E0851A06
:1007400082851B83851CF0E51D120901A882E581C5
:1007500024FCF581D007D006D003D002E8603A7CB3
:10076000027D00C002C003C004C005C006C00774FB
:1007700002C0E0E4C0E0744CC0E07401C0E07480EA
:10078000C0E0120A36E58124FBF581D007D006D0FF
:1007900005D004D003D00280387C017D00C002C0A7
:1007A00003C004C005C006C0077401C0E0E4C0E097
:1007B000744CC0E07401C0E07480C0E0120A36E5F9
:1007C0008124FBF581D007D006D005D004D003D01A
:1007D0000230933E2093FDEA4BB40100E433FA7BF0
:1007E00000C002C003C004C005C006C007C002C0EC
:1007F000037454C0E07401C0E07480C0E0120A3693
:10080000E58124FBF581D007D006D005D004D003C4
:10081000D002EA4B600B750AC8E4F50BC2940205DE
:10082000A1D2948E378F3890000AC002C003C00452
:10083000C005120A04E5828583F0D005D004D003F8
:10084000D0022CFCED35F0FDBC0005BD000280653A
:10085000BC0105BD00028054BC0205BD00028043FE
:10086000BC0A05BD00028056BC0C05BD0002802AF2
:10087000BC1405BD0002804FBC1505BD00028008F8
:10088000BC164DBD004A8009750AB4E4F50B02059B
:10089000A1750AA0E4F50B0205A1750A8CE4F50B1D
:1008A0000205A1750A78E4F50B0205A1750A64E456
:1008B000F50B0205A1750A50E4F50B0205A1750AB6
:1008C0003CE4F50B0205A1750A28E4F50B0205A12D
:1008D000750A14E4F50B0205A120F71430F614880C
:1008E00083A88220F507E6A88375830022E280F7BB
:1008F000E49322E022E4AC83AB82FAF9748E020B1B
:10090000ABFFA8811818120BD3D2D133E6400730C1
:10091000E70B7582012220E70675820022C2D11200
:100920000BB5E97003F5822230D101B3E433F582CF
:1009300022FFA8811818120BD3D2D133E64007301A
:10094000E70B7582002220E70675820122C2D112D0
:100950000BB5E97003F5822220D101B3E433F582AF
:1009600022120C80BC0003020C1FEF60FA30D5028B
:10097000B2D1E583B4FF03020C35E582B4FF030274
:100980000C35258340072482400B020C1F2483145E
:100990005003020C35F582EA8DF0A4A8F0EA8EF03F
:1009A000A428F8E435F0F9EB8DF0A428E935F0F946
:1009B000E433CA8FF0A429F9EA35F0FAEBF88EF0A7
:1009C000A429F9EA35F0FAE433FBEC8DF0A429F917
:1009D000EA35F0FAE43BFBE88FF0A42AFAEB35F0B5
:1009E000FBE433CCFD8EF0A42AFAEB35F0FBE43CBB
:1009F000FCED8FF0A42BFBEC35F0FC20E703120C90
:100A00004D020BFEE5828537F0A4C582C0F0853823
:100A1000F0A4D0F025F0C5838537F0A42583F583B5
:100A2000220212CE85823085833185F032851E33D5
:100A3000900A21020D37C008858108E50824FBF5DE
:100A400033E50824FBF88630088631088632900AA0
:100A500021120D37D0082210980280FBAA998A82B1
:100A6000C0021212CED0028A822220F71030F61174
:100A70008883A88220F507F6A88375830022F28078
:100A8000F7F022120C8030D502B2D1BF0009BC00B1
:100A900003020C42020C35BC0003020C1FE583B4B8
:100AA000FF0BE582B4FF03020C42020C1FE582B487
:100AB000FF03020C35C395835007247F400B020CC3
:100AC0001F2480145003020C35C0E0E4CCCBCAF9DB
:100AD0008D378E388F39EF54F0C4F53A758306851B
:100AE0003AF0EB84F582E9C4F9EAC4FAEBC4FBEC12
:100AF000540FC47803D6FC18EBD6FB18EAD6FA8557
:100B000082F0EDA4A8F0FD8582F0EEA428FEE43585
:100B1000F0F88582F0EFA428FFE435F0F8E99DF9BC
:100B2000EA9EFAEB9FFBEC98FCAD37AE38AF39305C
:100B3000E7101582E92DF9EA3EFAEB3FFBE43CFCB5
:100B400080EDC082D58398C3E933F9EA33FAEB33F9
:100B5000FBEC33FCC3E99DEA9EEB9FEC9400B3E40D
:100B600013F9D002D0E0C44AFAD003D0E0C44BFB62
:100B7000D004D0E0F5F0540FC44CFCD08215823084
:100B8000F40FD3EC13FCEB13FBEA13FAE913F905AA
:100B900082E930E70A74012AFAE43BFBE43CFC02F8
:100BA0000C16FCABF0AA83A982749EC2D1F5821206
:100BB0000C4D020BFE7901AA82E68F82B5821318D2
:100BC000E6B5F00E18E6B5830918E68A82B582020A
:100BD000790022B4800FE5F0700AE5837006E582A3
:100BE00070027F00EFB6801518B6001018B6000B23
:100BF00018B6000608080876002208080822B980FE
:100C000003EA13B34010EA2401FAE43BFBE43CFCA2
:100C100050047C800582BC000EBB000BBA0008E4C7
:100C2000F5F0F583F58222A2D1E582138CF092F7DC
:100C30008B838A8222E4F583F58275F080F4A2D159
:100C40001322E4F583F58275F0C0747F227804ECFA
:100C50007011E58224F8500AF582E4C9CACBFCD8A9
:100C6000EF22EC7820058220E713D5820122C3E928
:100C700033F9EA33FAEB33FBEC33FCD8EA15822282
:100C8000AA82AB83A2F73392D16002D2F7F582AC8D
:100C9000F0E58124F9F8E6FD08E6FE0886F008E6AE
:100CA000A2F73392D56002D2F7F583AFF022AA8281
:100CB00074BFC0E0740CC0E0C022C0238A82220549
:100CC00029E4B52902052A22AA8274302AFA24C608
:100CD000500A74072AFA3001034302208A82020C68
:100CE000AEE582FAC4540FF582C002120CC8D002DD
:100CF000740F5AF582020CC8AA24AB25AC26AD2786
:100D0000AE28752F20EE2EFEED235401FF4206EA99
:100D10002AFAEB33FBEC33FCED33FDC3EE952B40AD
:100D200008EEC3952BFE430201D52FD98A248B25CB
:100D30008C268D278E2822858222858323E4F5291F
:100D4000F52AAA30AB31AC328A828B838CF0120840
:100D5000D9FD74012AF530E43BF5318C32EDFA709F
:100D6000030212C7BA250280030212BFC205C206DF
:100D7000C207C208C209C20AC20BC20CC202C20325
:100D8000C204752B00752C00752DFFAB30AC31AD56
:100D9000328B828C838DF01208D9FAA3AB82AC839C
:100DA0008B308C318D32BA25078A82120CAE80923C
:100DB0008A06BE3000402E8A06EE24C6402774FF05
:100DC000B52D13E52C75F00AA4FEEA24D02EF52CDF
:100DD00070BFD20680BBE52D75F00AA4FEEA24D0D0
:100DE0002EF52D80ACBA2E0A74FFB52DA4752D00FA
:100DF000809F8A06BE6100400E8A06EE2485400769
:100E00005302DFD2018002C201BA20028075BA23E8
:100E100003020E92BA2A03020E97BA2B02805FBA1F
:100E20002D028055BA4202805FBA4303020EDCBA3B
:100E30004403021017BA4503021031BA46030210E8
:100E40002DBA4703021035BA4903021017BA4C02F3
:100E5000803BBA4E03021039BA4F0302101EBA503B
:100E600003020FB0BA5303020F00BA550302102356
:100E7000BA5803021028021063D205020D91D2075E
:100E8000020D91D208020D91D20A020D91D20B02ED
:100E90000D91D20C020D9174FFB52D20300A0BE597
:100EA0003314F88833862C020D91E53324FEF8883C
:100EB000338606088607188E2C020D91300A0BE542
:100EC0003314F88833862D020D91E53324FEF8881B
:100ED000338606088607188E2D020D91300A0AE522
:100EE0003314F888338602800FE53324FEF8883304
:100EF0008603088604188B028A82120CAE021068E0
:100F0000E53324FDF888338603088604088605182F
:100F1000188B248C258D268B828C838DF01212E306
:100F2000AB82AC838B2E74FFB52D03852E2D20054F
:100F30001DC3E52E952C5016E52CC3952EF52CAB34
:100F40002C152CEB6008758220120CAE80F18524E4
:100F5000828525838526F01208D9FBFA6029AB2DFE
:100F6000152DC3E464808BF063F08095F050188AEF
:100F700082120CAEAB24AC25AD260BBB00010C8B52
:100F8000248C258D2680C7200503021068C3E52E1A
:100F9000952C4003021068E52CC3952EF52CAB2C44
:100FA000152CEB7003021068758220120CAE80EED7
:100FB000E53324FDF888338603088604088605187F
:100FC000188B248C258D26E526FB30E7047A438098
:100FD00013EB546060047A50800AEB30E6047A49DF
:100FE00080027A588A82C002120CAE75823A120CC4
:100FF000AE758230120CAE758278120CAED002BA89
:101000004902800BBA50028006852582120CE185C8
:101010002482120CE18051D209752B0A804A752B6B
:10102000088045752B0A8040752B10803BD20280CA
:1010300037D2038033D204802FE53324FDF8883380
:10104000860308860408860518188B248C258D26AF
:101050008B828C838DF0E529120A6AA3E52A120A95
:101060006A80058A82120CAE200206200303300437
:101070005AE53324FCF8883386030886040886057D
:101080000886061818188B248C258D268E27752423
:101090006775250175268085243485253585263696
:1010A00074012534FEE43535FFAB368E248F258B55
:1010B000268534828535838536F01208D9FBFA708F
:1010C00003020D428A82120CAE80CCE52B70030223
:1010D0000D427B40300A2BE53314F88833E6FC33AD
:1010E00095E0FDFEFF8C248D258E268F2720095E3E
:1010F000AC247D007E007F008C248D258E268F27DA
:10110000804C300B1FE53324FCF8883386040886B6
:10111000050886060886071818188C248D258E2643
:101120008F27802AE53324FEF88833860408860555
:1011300018ED3395E0FEFF8C248D258E268F272019
:10114000090CAC24AD257E007F008E268F27300C45
:1011500043E52445254526452760397408B52B0C01
:10116000758230C003120CAED00380287410B52BEA
:1011700023758230C003120CAED00330010C75828F
:1011800078C003120CAED003800A758258C00312D7
:101190000CAED003300925AC24AD25AE26E527FFE3
:1011A00030E717C3E49CFCE49DFDE49EFEE49FFF52
:1011B0008C248D258E268F278002C209752E00D2A1
:1011C0000D8B00752800C000120CF8D000200D0D0A
:1011D000E528C4FCE6FD4CF61888038002A6280525
:1011E0002EB20DE52445254526452770D68803E512
:1011F0002C7003752C0120061A200517E52E04FC1F
:10120000C3952C500E758220C003120CAED003156E
:101210002C80E930090E75822DC003120CAED0036C
:10122000152C8024E52E602030070E75822BC0031C
:10123000120CAED003152C800F30080C758220C024
:1012400003120CAED003152C20051EAC2C152CC39C
:10125000E52E9C50273006047C3080027C208C8256
:10126000C003120CAED00380E2C3E52E952C5009CA
:10127000E52CC3952EF52C8003752C008B00AB2E2E
:10128000152EEB6022B20D200D0A08E6C4540FFBA8
:101290008B2880078603740F5BF528852882C000A1
:1012A000120CC8D00080D7200503020D42AB2C15CC
:1012B0002CEB7003020D42758220120CAE80EE8A78
:1012C00082120CAE020D42852982852A8322AA82CF
:1012D000BA0A0810990280FB75990D10990280FBDB
:1012E0008A9922AA82AB83ACF07D007E008A828B31
:1012F000838CF01208D9FFA3AA82AB83EF60070D9D
:10130000BD00EA0E80E78D828E832200000000007F
:00000001FF
