:1000000002002EE4F525F5262200000203920000EE
:10002000000000000000000000000002039A75813B
:100030006D1201EAE582600302009A780079007A85
:10004000007B007C007D00EC4D601C88828983E48D
:1000500093A3A882A9838A828B83F0A3AA82AB830D
:100060001CBCFFE31D80E07582007583007C007D71
:1000700000EC4D600AE4F0A31CBCFFF51D80F27596
:1000800082007583007C007D00EC4D600AE4F0A3E3
:100090001CBCFFF51D80F212000312059280FE1BAE
:1000A0005B324A0045464D382072656D6F74650AB3
:1000B00046696C653A2025730A436F6D70696C65FB
:1000C000643A2025732C2025730A0A00433A5C55B4
:1000D000736572735C6E617468615C446F776E6C9B
:1000E0006F6164735C5542435C596561725F325C59
:1000F0005465726D5F325C454C45433239315C501A
:10010000726F6A65637420325C50726F6A656374E3
:100110002D322D547261636B696E672D526F626F61
:10012000745C646F635C72656D6F74652E6300410F
:10013000707220203420323032330031363A31317F
:100140003A323300426561636F6E20546F67676CAB
:1001500065643A20256400426561636F6E204D6FCF
:100160006465202020202000436F6E74726F6C2025
:1001700044697361626C656400436F6E74726F6C86
:100180006C6572204D6F646520004469726563740C
:10019000696F6E3A204E202020200044697265630A
:1001A00074696F6E3A2045202020200044697265F2
:1001B0006374696F6E3A20532020202000446972D6
:1001C000656374696F6E3A205720202020004469CF
:1001D00072656374696F6E3A204E6F6E6520003CE5
:1001E0004E4F20464C4F41543E0075A7007597DE98
:1001F0007597AD43FF8075EF0275A71075C1207527
:10020000A70075A90075A900E5A930E7FB75A9034A
:1002100075A903E5A930E7FB43A41075E10175E278
:100220000075E340759810858E8E758DE6858D8BF3
:1002300053890F438920D28ED2997582002275A7E7
:1002400000C2EF75B28075BC2075B91E75E80075E7
:10025000DF3F75B300D2EF22AA82438E407592B879
:100260007593FF8592948593957591047B00C3EBFC
:100270009A500BE59130E7FB53917F0B80F075911D
:100280000022AA82AB83BA0004BB0001227582F966
:10029000C002C0031202587582F91202587582F921
:1002A0001202587582FA120258D003D0021ABAFF0D
:1002B000011B80D2AA828511F005F074018002250D
:1002C000E0D5F0FBFB75A720BA0002800ABA010254
:1002D000800FBA021E8014EBF4FA52F1EB42D48084
:1002E00012EBF4FA52F2EB42D58008EBF4FA52F337
:1002F000EB42CC75A700228582BBC2EDD2EC30ED7B
:10030000FD85BD8285BE83221202F7120985AA826D
:10031000AB83ACF0FDC002C003C004C005906C8B81
:1003200075F0537440120A25AA82AB83ACF0FDE548
:100330008124FCF581E4C0E074FCC0E0747FC0E07F
:100340007446C0E08A828B838CF0ED120BD9AA82AE
:10035000AB83ACF0FDE58124FCF5818A828B838C34
:10036000F0ED22438E025389F0438902758ACF75DE
:100370008CCFD2A9D2AFC28C2275C800438E107523
:10038000CA6075CB7375CEFF75CFFFD2AFD2ADC249
:10039000CA2275A700B2A0B2A132C0E0C0D075D009
:1003A0000075A700C2CF0525E4B525020526749087
:1003B000B525127401B5260DE4F525F526D296C2B1
:1003C000A0D2A1D28CE523B52509E524B52604C227
:1003D00096C28CD0D0D0E032D2A6758228120258B4
:1003E000C2A622AA828AE0A2E792A2A2E692A3A2D1
:1003F000E592A4A2E492A5C0021203D87582281245
:100400000258D0028AE0A2E392A2A2E292A3A2E161
:1004100092A4A2E092A50203D8AA82D2B08A821244
:1004200003E3900002020282AA82C2B08A8212030F
:10043000E3900005020282C2A690001412028275A7
:100440008233120428758233120428758232120412
:100450002875822812042875820C120428758201DE
:10046000120428900014020282AA82AB83ACF074BA
:1004700002B527047DC080027D808D82C002C0034A
:10048000C004120428900005120282D004D003D0C8
:10049000027D007E00ED2AFFEE3BF88C018F828802
:1004A0008389F0120969FF60208F82C002C003C0F7
:1004B00004C005C006120419D006D005D004D0032C
:1004C000D0020DBD00CF0E80CC3000248D028E03F3
:1004D000C3EA9410EB648094805015758220C002AA
:1004E000C003120419D003D0020ABA00E30B80E063
:1004F0002285822A85832B85F02CE4F52DF52EE5C7
:100500002824FFFFE52934FFF879007A00C3E99F2A
:10051000EA648088F063F08095F05059C002C0070B
:10052000C000C001120B0DAB82D001D000D007D0AB
:1005300002BB0A028003BB0D1DE52D252AFCE52E1A
:10054000352BFDAE2C8C828D838EF0E4120B208532
:100550002D82852E8322E9252AFCEA352BFDAE2C3F
:100560008C828D838EF0EB120B2009B900010A8971
:100570002D8A2E8098E52D252AFAE52E352BFBAC09
:100580002C8A828B838CF0E4120B208528828529AB
:100590008322753501E4F536C2A0D2A19001F41290
:1005A0000282120363120379749FC0E07400C0E0FA
:1005B0007480C0E0120AEC158115811581743BC06E
:1005C000E07401C0E07480C0E0742FC0E07401C02A
:1005D000E07480C0E074CCC0E07400C0E07480C0FF
:1005E000E074A4C0E07400C0E07480C0E0120AECC3
:1005F000E58124F4F581120437D2CA7511017582A0
:10060000011202B47511027582011202B412023E87
:10061000758207120308AC82AD83AEF0FF758208C5
:10062000C004C005C006C007120308858231858357
:100630003285F033F534D007D006D005D004C0049D
:10064000C005C006C007C004C005C006C00790337F
:100650003375F0137440120BCEAA82AB83A8F0F965
:10066000E58124FCF5818A828B8388F0E91209C137
:10067000120AC885822F858330C031C032C033C092
:100680003490333375F0137440120BCEA882A983D3
:10069000AAF0FBE58124FCF581888289838AF0EB4E
:1006A0001209C1120AC8AA82AB83D007D006D005AE
:1006B000D004C3EA952FEB64808530F063F0809519
:1006C000F0506CC004C005C006C0077433C0E0C061
:1006D000E074F3C0E0743FC0E08C828D838EF0EF55
:1006E0001209F5A882E58124FCF581D007D006D057
:1006F00005D004E86007780179000207A674CDC030
:10070000E074CCC0E0742CC0E07440C0E08C828DFA
:10071000838EF0EF120991AC82E58124FCF581EC27
:100720006007780379000207A6780079008077C314
:10073000E52F9AE53064808BF063F08095F050628D
:100740007433C0E0C0E074F3C0E0743FC0E08531B2
:10075000828532838533F0E5341209F5AA82E5817A
:1007600024FCF581EA600678047900803974CDC0F4
:10077000E074CCC0E0742CC0E07440C0E0853182ED
:100780008532838533F0E534120991AA82E581240C
:10079000FCF581EA600678027900800A7800790029
:1007A0008004780079003093332093FDE535453699
:1007B000B40100E433FA8A35753600C000C001C0C8
:1007C00035C0367444C0E07401C0E07480C0E012EB
:1007D0000AECE58124FBF581D001D000E5354536F2
:1007E000604D752390752401C2947457C0E0740164
:1007F000C0E07480C0E07437C0E07400C0E07440B2
:10080000C0E0120B88E58124FAF5817468C0E074B9
:1008100001C0E07480C0E07448C0E07400C0E074BF
:1008200040C0E0120B88E58124FAF58102094AD222
:1008300094C000C0017479C0E07401C0E07480C04D
:10084000E07437C0E07400C0E07440C0E0120B8870
:10085000E58124FAF581D001D000B80105B9000284
:10086000801CB80205B90002803EB80305B9000239
:10087000805FB80406B900030208FA020923752351
:1008800054752401748AC0E07401C0E07480C0E033
:100890007448C0E07400C0E07440C0E0120B88E50A
:1008A0008124FAF58102094A7523DCE4F524749B5E
:1008B000C0E07401C0E07480C0E07448C0E074001F
:1008C000C0E07440C0E0120B88E58124FAF5818015
:1008D0007975231875240174ACC0E07401C0E0740C
:1008E00080C0E07448C0E07400C0E07440C0E01212
:1008F0000B88E58124FAF58180507523A0E4F52466
:1009000074BDC0E07401C0E07480C0E07448C0E011
:100910007400C0E07440C0E0120B88E58124FAF551
:10092000818027752364E4F52474CEC0E07401C08F
:10093000E07480C0E07448C0E07400C0E07440C05F
:10094000E0120B88E58124FAF581752701D2009029
:10095000003775F040120469752702D200900048F4
:1009600075F04012046902061020F71430F614885E
:1009700083A88220F507E6A88375830022E280F72A
:10098000E49322E022E4AC83AB82FAF9748E020D88
:1009900001FFA8811818120D29D2D133E640073083
:1009A000E70B7582012220E70675820022C2D11270
:1009B0000D0BE97003F5822230D101B3E433F582E7
:1009C00022120D54700AE582458345F0700122E43D
:1009D00030D112F4700BE5F0F47006E58330E701D6
:1009E0002290800022700AE5F07006E58320E7017E
:1009F00022907FFF22FFA8811818120D29D2D1332F
:100A0000E6400730E70B7582002220E70675820179
:100A100022C2D1120D0BE97003F5822220D101B35D
:100A2000E433F58222120E31BC0003020DD0EF60D8
:100A3000FA30D502B2D1E583B4FF03020DE6E582B8
:100A4000B4FF03020DE6258340072482400B020D0C
:100A5000D02483145003020DE6F582EA8DF0A4A899
:100A6000F0EA8EF0A428F8E435F0F9EB8DF0A42834
:100A7000E935F0F9E433CA8FF0A429F9EA35F0FA40
:100A8000EBF88EF0A429F9EA35F0FAE433FBEC8DAB
:100A9000F0A429F9EA35F0FAE43BFBE88FF0A42A48
:100AA000FAEB35F0FBE433CCFD8EF0A42AFAEB35FB
:100AB000F0FBE43CFCED8FF0A42BFBEC35F0FC20CC
:100AC000E703120DFE020DAFE58330E709F4F5836D
:100AD000E582F4F582A32202147F8582678583680C
:100AE00085F06985106A900AD7020EE8C0088581F2
:100AF00008E50824FBF56AE50824FBF88667088604
:100B000068088669900AD7120EE8D0082210980269
:100B100080FBAA998A82C00212147FD0028A8222A4
:100B200020F71030F6118883A88220F507F6A883F5
:100B300075830022F280F7F022AA82AB09AC0AADDD
:100B40000B8B828C838DF0EA120B200509E4B5092A
:100B500002050A2285820985830A85F00B850C67C8
:100B6000850D68850E69850F6A900B39120EE8AA0B
:100B700082AB83AC09AD0AAE0B8C828D838EF0E420
:100B8000120B208A828B8322C008858108E5082405
:100B9000F8F56AE50824FBF8860908860A08860B3A
:100BA000E50824F8F88667088668088669900B3996
:100BB000120EE8AA82AB83AC09AD0AAE0B8C828D13
:100BC000838EF0E4120B208A828B83D00822A881C6
:100BD0001818C6B2E7C6021494120E3130D502B20C
:100BE000D1BF0009BC0003020DF3020DE6BC0003F7
:100BF000020DD0E583B4FF0BE582B4FF03020DF3D1
:100C0000020DD0E582B4FF03020DE6C395835007C1
:100C1000247F400B020DD02480145003020DE6C047
:100C2000E0E4CCCBCAF98D118E128F13EF54F0C4CF
:100C3000F5147583068514F0EB84F582E9C4F9EAAE
:100C4000C4FAEBC4FBEC540FC47803D6FC18EBD603
:100C5000FB18EAD6FA8582F0EDA4A8F0FD8582F0B3
:100C6000EEA428FEE435F0F88582F0EFA428FFE436
:100C700035F0F8E99DF9EA9EFAEB9FFBEC98FCADA4
:100C800011AE12AF1330E7101582E92DF9EA3EFAE2
:100C9000EB3FFBE43CFC80EDC082D58398C3E93395
:100CA000F9EA33FAEB33FBEC33FCC3E99DEA9EEB44
:100CB0009FEC9400B3E413F9D002D0E0C44AFAD018
:100CC00003D0E0C44BFBD004D0E0F5F0540FC44C8B
:100CD000FCD082158230F40FD3EC13FCEB13FBEA4B
:100CE00013FAE913F90582E930E70A74012AFAE4F4
:100CF0003BFBE43CFC020DC7FCABF0AA83A9827469
:100D00009EC2D1F582120DFE020DAF7901AA82E6D4
:100D10008F82B5821318E6B5F00E18E6B583091870
:100D2000E68A82B58202790022B4800FE5F0700A6B
:100D3000E5837006E58270027F00EFB6801518B675
:100D4000001018B6000B18B6000608080876002236
:100D5000080808221214EDC3749E95824039790068
:100D60001214FF30D126E9F42401F582EAF43400AC
:100D7000F583EBF43400F5F0ECF43400700AE5820E
:100D8000458345F0700122E430E70F22EC20E714A0
:100D900089828A838BF02230D10AE4F582F583F5CB
:100DA000F074802274FFF582F583F5F0747F22B928
:100DB0008003EA13B34010EA2401FAE43BFBE43C6D
:100DC000FC50047C800582BC000EBB000BBA0008FE
:100DD000E4F5F0F583F58222A2D1E582138CF0923E
:100DE000F78B838A8222E4F583F58275F080F4A282
:100DF000D11322E4F583F58275F0C0747F22780464
:100E0000EC7011E58224F8500AF582E4C9CACBFCE3
:100E1000D8EF22EC7820058220E713D5820122C387
:100E2000E933F9EA33FAEB33FBEC33FCD8EA158209
:100E300022AA82AB83A2F73392D16002D2F7F58265
:100E4000ACF0E58124F9F8E6FD08E6FE0886F00836
:100E5000E6A2F73392D56002D2F7F583AFF022AA6B
:100E6000827470C0E0740EC0E0C059C05A8A8222F9
:100E70000560E4B56002056122AA8274302AFA2472
:100E8000C6500A74072AFA3001034302208A8202FC
:100E90000E5FE582FAC4540FF582C002120E79D0BB
:100EA00002740F5AF582020E79AA5BAB5CAC5DADA1
:100EB0005EAE5F756620EE2EFEED235401FF420606
:100EC000EA2AFAEB33FBEC33FCED33FDC3EE95621B
:100ED0004008EEC39562FE430201D566D98A5B8B5A
:100EE0005C8C5D8D5E8E5F2285825985835AE4F528
:100EF00060F561AA67AB68AC698A828B838CF0125B
:100F00000969FD74012AF567E43BF5688C69EDFA1F
:100F10007003021478BA25028003021470C205C25D
:100F200006C207C208C209C20AC20BC20CC202C270
:100F300003C2047562007563007564FFAB67AC683B
:100F4000AD698B828C838DF0120969FAA3AB82ACF8
:100F5000838B678C688D69BA25078A82120E5F8041
:100F6000928A06BE3000402E8A06EE24C6402774C0
:100F7000FFB56413E56375F00AA4FEEA24D02EF5EC
:100F80006370BFD20680BBE56475F00AA4FEEA2454
:100F9000D02EF56480ACBA2E0A74FFB564A47564D3
:100FA00000809F8A06BE6100400E8A06EE248540BE
:100FB000075302DFD2018002C201BA20028075BA53
:100FC0002303021043BA2A03021048BA2B02805F9F
:100FD000BA2D028055BA4202805FBA430302108DD7
:100FE000BA44030211C8BA45030211E2BA46030229
:100FF00011DEBA47030211E6BA49030211C8BA4C1E
:1010000002803BBA4E030211EABA4F030211CFBA73
:101010005003021161BA53030210B1BA5503021111
:10102000D4BA58030211D9021214D205020F42D2C7
:1010300007020F42D208020F42D20A020F42D20B1D
:10104000020F42D20C020F4274FFB56420300A0B2B
:10105000E56A14F8886A8663020F42E56A24FEF89E
:10106000886A8606088607188E63020F42300A0BCC
:10107000E56A14F8886A8664020F42E56A24FEF87D
:10108000886A8606088607188E64020F42300A0AAC
:10109000E56A14F8886A8602800FE56A24FEF888FB
:1010A0006A8603088604188B028A82120E5F021277
:1010B00019E56A24FDF8886A86030886040886050F
:1010C00018188B5B8C5C8D5D8B828C838DF0121578
:1010D00042AB82AC838B6574FFB564038565642085
:1010E000051DC3E56595635016E563C39565F56316
:1010F000AB631563EB6008758220120E5F80F1858B
:101100005B82855C83855DF0120969FBFA6029AB1F
:10111000641564C3E464808BF063F08095F050182C
:101120008A82120E5FAB5BAC5CAD5D0BBB00010C49
:101130008B5B8C5C8D5D80C7200503021219C3E5B3
:101140006595634003021219E563C39565F563ABCA
:10115000631563EB7003021219758220120E5F8013
:10116000EEE56A24FDF8886A860308860408860589
:1011700018188B5B8C5C8D5DE55DFB30E7047A4372
:101180008013EB546060047A50800AEB30E6047AF6
:101190004980027A588A82C002120E5F75823A1222
:1011A0000E5F758230120E5F758278120E5FD0026C
:1011B000BA4902800BBA50028006855C82120E92F8
:1011C000855B82120E928051D20975620A804A753F
:1011D0006208804575620A8040756210803BD202C9
:1011E0008037D2038033D204802FE56A24FDF8884B
:1011F0006A860308860408860518188B5B8C5C8D4C
:101200005D8B828C838DF0E560120B20A3E561126B
:101210000B2080058A82120E5F2002062003033015
:10122000045AE56A24FCF8886A860308860408865E
:10123000050886061818188B5B8C5C8D5D8E5E75B4
:101240005BDF755C01755D80855B6B855C6C855DC6
:101250006D7401256BFEE4356CFFAB6D8E5B8F5CAE
:101260008B5D856B82856C83856DF0120969FBFA55
:101270007003020EF38A82120E5F80CCE562700367
:10128000020EF37B1A300A2BE56A14F8886AE6FC32
:101290003395E0FDFEFF8C5B8D5C8E5D8F5E2009DB
:1012A0005EAC5B7D007E007F008C5B8D5C8E5D8F15
:1012B0005E804C300B1FE56A24FCF8886A860408BF
:1012C00086050886060886071818188C5B8D5C8EC4
:1012D0005D8F5E802AE56A24FEF8886A86040886A7
:1012E0000518ED3395E0FEFF8C5B8D5C8E5D8F5EA7
:1012F00020090CAC5BAD5C7E007F008E5D8F5E30A4
:101300000C43E55B455C455D455E60397408B5623C
:101310000C758230C003120E5FD00380287410B5A4
:101320006223758230C003120E5FD00330010C754A
:101330008278C003120E5FD003800A758258C00302
:10134000120E5FD003300925AC5BAD5CAE5DE55E8F
:10135000FF30E717C3E49CFCE49DFDE49EFEE49FA0
:10136000FF8C5B8D5C8E5D8F5E8002C209756500AF
:10137000D20D8B00755F00C000120EA9D000200DA9
:101380000DE55FC4FCE6FD4CF61888038002A65FFD
:101390000565B20DE55B455C455D455E70D688032D
:1013A000E563700375630120061A200517E56504DF
:1013B000FCC39563500E758220C003120E5FD003EC
:1013C000156380E930090E75822DC003120E5FD0BF
:1013D0000315638024E565602030070E75822BC0FD
:1013E00003120E5FD0031563800F30080C75822046
:1013F000C003120E5FD003156320051EAC63156396
:10140000C3E5659C50273006047C3080027C208C2C
:1014100082C003120E5FD00380E2C3E5659563507E
:1014200009E563C39565F56380037563008B00ABC5
:10143000651565EB6022B20D200D0A08E6C4540F55
:10144000FB8B5F80078603740F5BF55F855F82C04F
:1014500000120E79D00080D7200503020EF3AB6393
:101460001563EB7003020EF3758220120E5F80EE9F
:101470008A82120E5F020EF385608285618322AA42
:1014800082BA0A0810990280FB75990D10990280A2
:10149000FB8A9922120E317900E583B58202800D14
:1014A000500312156AE583C395821214FFE5D0C478
:1014B00065D020E117EA2DFAEB3EFBEC3FFC50092A
:1014C00074011214FFEC4480FC020DAFC3EA9DFAD4
:1014D000EB9EFBEC9FFC500FC3E499F9E49AFAE40D
:1014E0009BFBE49CFCB2D1120DFE020DAFAA82ABB5
:1014F00083A2F73392D16002D2F7F582ACF022607A
:1015000040F82582500274FFF582E824F8501ECC82
:10151000CBCAF9E4CC24F85014CBCAF9E4CB24F8B4
:10152000500BCAF9E4CA24F8500379002224086059
:1015300010F8C3EC13FCEB13FBEA13FAE913F9D828
:10154000F122AA82AB83ACF07D007E008A828B837D
:101550008CF0120969FFA3AA82AB83EF60070DBD6F
:1015600000EA0E80E78D828E8322E582C583F582B4
:10157000A2D133A2D592D11392D5ECCFFCEBCEFB06
:10158000EACDFA2200000000000000000000000088
:00000001FF
